:1000F100534100584D00575100585A004F50004B82
:0E0101004C0041610042620043630044640010
:10014500758920758DFD758BFD75985053877FD208
:050155008EE4F5A82274
:080003008F993099FDC299228A
:1000CC008B088A09890AAB08AA09A90A12012C60B3
:1000DC0013050AE50A7002050914F912012CFF1226
:0400EC00000380E2AB
:0100F00022ED
:0C015A00E4FFE4FE0EBE21FC0FBF0AF61D
:010166002276
:04010F007FF47E01FA
:04011300AD07AC0682
:10011700E4FBFAC3EB9DEA9C500A12015A0BBB00A1
:04012700010A80EF5A
:01012B0022B1
:10009E0012010FC291D29212010F7FC01200037F84
:1000AE00FF1200031200037F191200037F3E12009D
:0E00BE0003E4FF12000312010FC291C292224E
:1000160012014512009E2080097BFF7A0079F112B9
:1000260000CC2081097BFF7A0079F41200CC208273
:10003600097BFF7A0079F71200CC2083097BFF7ACF
:100046000079FA1200CC2084097BFF7A0079FD1230
:1000560000CC2085097BFF7A0179001200CC20862E
:10006600097BFF7A0179031200CC2087097BFF7A8E
:100076000179061200CC2093097BFF7A01790912D7
:1000860000CC2094097BFF7A01790C1200CC7F30DA
:080096007E0012011302001CA0
:0300130002000EDA
:03000E00C28B3270
:03000B000201737C
:03017300C28D3208
:0300000002016793
:0C016700787FE4F6D8FD75810A020016CE
:10012C00BB010689828A83E0225002E722BBFE02D1
:09013C00E32289828A83E4932204
:00000001FF
