:020000040800F2
:10000000180C0020CD0100080D2A0008BD270008AB
:10001000092A0008210C00088D2E000800000000AD
:10002000000000000000000000000000152A000889
:10003000450C000800000000112A0008BD2B000834
:10004000E7010008E7010008E7010008E7010008F0
:10005000E7010008E7010008E7010008E7010008E0
:10006000E7010008E7010008E7010008E7010008D0
:10007000E7010008E7010008250C0008350C00081E
:10008000E7010008E7010008E7010008E7010008B0
:10009000E7010008E7010008E7010008E7010008A0
:1000A000E7010008E7010008E7010008E701000890
:1000B000E7010008E7010008E7010008E701000880
:1000C000E7010008E7010008E7010008E701000870
:1000D000E70100087D2E0008E7010008E70100089D
:1000E000E7010008E7010008E7010008E701000850
:1000F000E7010008E7010008E7010008E701000840
:10010000E7010008E7010008E7010008E70100082F
:10011000E7010008E7010008E7010008E70100081F
:10012000E7010008E7010008E7010008E70100080F
:1001300000F002F800F03AF80AA090E8000C8244BF
:100140008344AAF10107DA4501D100F02FF8AFF29C
:10015000090EBAE80F0013F0010F18BFFB1A43F0A5
:10016000010318476435000084350000103A24BFAD
:1001700078C878C1FAD8520724BF30C830C144BF0C
:1001800004680C607047000000230024002500264E
:10019000103A28BF78C1FBD8520728BF30C148BFEA
:1001A0000B6070471FB51FBD10B510BD00F058F8AB
:1001B0001146FFF7F7FF02F06BFE00F076F803B48C
:1001C000FFF7F2FF03BC00F07DF80000094880470C
:1001D00009480047FEE7FEE7FEE7FEE7FEE7FEE729
:1001E000FEE7FEE7FEE7FEE704480549054A064B41
:1001F00070470000C52B00083101000818060020D8
:10020000180C002018080020180800204FF00002E9
:1002100000B5134694469646203922BFA0E80C50FC
:10022000A0E80C50B1F12001BFF4F7AF090728BFD7
:10023000A0E80C5048BF0CC05DF804EB890028BF53
:1002400040F8042B08BF704748BF20F8022B11F07C
:10025000804F18BF00F8012B7047704770477047F8
:10026000754600F02BF8AE4605006946534620F06F
:100270000700854618B020B5FFF7B6FFBDE820405F
:100280004FF000064FF000074FF000084FF0000B52
:10029000AC46ACE8C009ACE8C009ACE8C009ACE8C1
:1002A000C00921F007018D46704710B50446AFF331
:1002B00000802046BDE81040FFF781BF004870472E
:1002C0007800002001491820ABBEFEE7260002009E
:1002D000704700002DE9F04740F2002CC2F2000CFC
:1002E0009CF8001040F2082940F20C6840F20C051E
:1002F0008246C2F20009C2F20008C2F20005A9B1AA
:10030000EFF31080EFF3108172B6B8F80010A9F87F
:1003100000104FF000018CF8001000B962B6002008
:100320002A180C30602851601172F9D1B9F80060B8
:10033000B8F80070BE423CD19CF80000B0B1EFF3B9
:100340001081EFF3108072B6B8F80000A9F8000031
:100350004FF000008CF8000001B962B6002100BF28
:100360006A180C31602950601072F9D1002600F033
:10037000EFFF002103E000BF0C31602909D06A18AB
:10038000137A002BF8D05368C31AA02B28BF16721B
:10039000F2E70020295A51454BD00C306028F9D1A2
:1003A0000020002848D0007A002818BF0120BDE8AE
:1003B000F08740F20C23C2F200034FF0010E07E079
:1003C000A9F80010B9F80060B8F80070BE42B3D0C8
:1003D000711C88B27F2888BF002188B2BAB29042CF
:1003E000AAD0B2B203EBC206776803EBC006766808
:1003F00013F8322013F8300040EA0220002200BF38
:10040000AC5A844206D00C32602AF9D1002222B9BB
:10041000D6E700BF2A44002AD2D0F01B1428CFD838
:10042000013188B2566082F808E07F2888BF002139
:10043000C6E728440028B6D10020BDE8F0870000B8
:100440002DE9F04F81B04DF6F00ACFF6FF7A06465F
:10045000504542F210700F46D8BF56468642A8BF9C
:1004600006465145D8BF57468742A8BF0746B81928
:1004700002F040FF8046F01B02F03CFF8146384608
:1004800002F038FF20F000444AF20001C4F28C511F
:10049000204602F01DFE4FF07E5105464FF07E5B78
:1004A00002F0EEFD42F20811002818BF4FF07E5511
:1004B000CBF68461284602F0B1FF4FF07E5102F086
:1004C0006FFD05463046774302F014FF20F00046EA
:1004D0003046214602F0E2FD38B9012F05DB2846FF
:1004E000494602F09BFF81460EE03046214602F06D
:1004F000C7FD002F58BF5D46002808BF5D4628464F
:10050000414602F08BFF804628F0004429F0004568
:100510002846214602F0B4FD002818BF2C4644F2BC
:100520000005C4F21C652046294602F0A9FD0646D6
:100530002846214602F0CCFD0546002E08BF4FF0AC
:100540007E554846294602F069FF04464046294642
:1005500002F064FF0021054602F0A7FD00284FF0DD
:100560007C5128464FF07C5718BF4FF03F4102F0B6
:1005700017FD02F0A3FE05465045D8BF554642F28E
:10058000107620460021B542A8BF354602F08DFD09
:10059000002818BF4FF03F472046394602F000FDC3
:1005A00002F08CFE04465045D8BF5446B442A8BF62
:1005B00034465545D8BF5546B542B8BF2E464EB312
:1005C0003046002DD8BF404202F094FE44F20001B4
:1005D000C4F21C6102F07CFD0021C4F2663102F01D
:1005E0001DFF4FF07C5102F0DBFC02F067FE00F1D2
:1005F00014016FF01302002DC8BF111A01F5B46089
:10060000FA29C8BF40F29A6011F1FA0FB8BF40F260
:10061000A64001E04FF4B46040F27011C2F2000154
:100620000F6882B2F96A914238BF084680B2B86357
:100630004EB3002DD8BF7642304602F05BFE44F246
:100640000001C4F21C6102F043FD0021C4F26631D6
:1006500002F0E4FE4FF07C5102F0A2FC02F02EFE0C
:1006600000F114016FF01302002DC8BF111A01F53B
:10067000B460FA29C8BF40F29A6011F1FA0FB8BF0E
:1006800040F2A64001E04FF4B460F96A82B29142B0
:1006900038BF084681B2544542F21070C8BFA24626
:1006A0008245B8BF5046F96388B3BAF1000FD8BF8E
:1006B000404202F01FFE44F20001C4F21C6102F04D
:1006C00007FD0021C4F2663102F0A8FE4FF07C5114
:1006D00002F066FC02F0F2FD6FF01301091ABAF1A4
:1006E000000FC8BF00F1140101F5B460FA29C8BFBA
:1006F00040F29A6011F1FA0FB8BF40F2A640F96AD1
:1007000082B2914228BF014689B2796307E0F96A53
:100710004FF4B460B1F5B46F28BF01467963F96A4C
:1007200082B2914238BF084680B2386401B0BDE859
:10073000F08F00002DE9F04F83B04DF6F00ACFF6B0
:10074000FF7A0446504542F21070D8BF54468442A6
:1007500042F21075B8BF25465145D8BF5146814277
:1007600041F2941B9846A8BF01465945164614DC31
:100770004EF66C6BCFF6FF7B59450EDB481E40F200
:100780006B72904202D240F26C7B06E04FF6940B03
:10079000CFF6FF7B594538BF8B4600F0D9FD40F2BC
:1007A000E401C2F200010A78BAB340F2E001C2F2F9
:1007B00000010A68871A0A2FC0F0EB81142F28BFA6
:1007C0001427002E0860CDE901785BD0304602F096
:1007D000A9FD0646384602F0A5FD0021C4F27A4183
:1007E00002F076FC314602F019FE40F2DC01C2F262
:1007F0000001D1F800800646284602F07BFD414604
:10080000074602F0D7FE3146814602F047FCE8BBBE
:100810003046414602F0C4FB44E001220A7040F237
:10082000E001C2F200010860284602F063FD0546BF
:1008300040F2DC00C2F200000027002E18BF3D4647
:100840000560584602F056FD044640F2D800C2F258
:100850000000B8F1000F18BF3C4604602846002194
:1008600002F023FC4FF07C510028284618BF4FF0BF
:100870003F4102F095FB02F021FD05465045D8BFEF
:10088000554665E1284602F035FD0BE086F0004153
:10089000484602F0FCFB0028384603D1404631466A
:1008A00002F088FE40F2D802C2F2000240F2DC01FF
:1008B000D2F80080C2F200010746086040460021DD
:1008C00002F0ECFB28B9BBF1000F02D54FF0000994
:1008D0000BE04046002102F0DAFB4FF0010920B99D
:1008E000BBF1010FA8BF4FF00009584602F002FD0E
:1008F0000646B9F1000F484618BF3046009025B9AA
:100900003846002102F0AEFB58B9012CC0F28180BC
:1009100048F20001C4F2ED41384602F0B8FB00286D
:1009200077D00124594609EA0400BBF1000F18BF33
:10093000012100EA010448F2000128F00040C4F25D
:10094000ED4102F0B2FB002818BF012004EA0005C7
:10095000012D0FD148F2000040F2D801CCF2ED4059
:10096000C2F20001BBF1000FC4BF48F20000C4F2A4
:10097000ED4008605846BBF1000F18BF012000EAA7
:100980000900012839D140F2D800C2F20000046801
:100990000021204602F066FBDDF80880B94690B9D8
:1009A0002046002102F07AFB10B9BBF1000F0ADCEF
:1009B0002046002102F06BFB00284FF001000CD113
:1009C000BBF1FF3F09DC26F0004024F0004102F0BB
:1009D00065FB00280CBF00200120B8F1000F13D0E8
:1009E00040F2D80B002DC2F2000B40F09C8008B3FF
:1009F00044F20004C4F29C7455E0DDF80880012044
:100A0000B946B8F1000FEBD140F2D80BC2F2000B9F
:100A100087E0B5F1FF3F4FF000043FF783AF48F2A6
:100A20000001CCF2ED41384602F02AFB002808BF55
:100A3000012477E7DBF8000048F2000120F00044D1
:100A4000C4F2ED41204602F029FBB0B948F20001A2
:100A5000CCF2ED41204602F0A3FA48F20001C4F2C4
:100A6000225102F035FB4FF07E51044602F016FB96
:100A7000002808BF4FF07E5400E00024404602F0FA
:100A800051FC054641F28830804588BF404602F05F
:100A900049FC294602F08EFD214602F0BFFC2946A2
:100AA00002F07EFA0446019802F03CFC0021C4F2F8
:100AB0007A4102F00DFB214602F0B0FCDBF8005059
:100AC000DDF8008004464046294602F073FD2146C9
:100AD000064602F0E3FA20B92846214602F060FA01
:100AE0000AE084F00041304602F0D1FA474620B9CE
:100AF0002846214602F05EFD07464046002102F0EE
:100B0000B1FA48F20001044627F00040C4F2ED417A
:100B100002F0CBFA3E46002818BF0026002C08BF82
:100B20003E46CBF800604846002102F0BEFA4FF086
:100B30007C510028484618BF4FF03F4102F030FA80
:100B400002F0BCFB05465045D8BF5546DBF80040D7
:100B500042F210708542A8BF05462046002102F0EF
:100B6000A4FA4FF07C510028204618BF4FF03F41B7
:100B700002F016FA02F0A2FB5045C8BF824642F2CC
:100B800010708245A8BF82460FFA8AF128B2FFF79B
:100B900057FC03B0BDE8F08F80B540F27010C2F290
:100BA000000001684FF4B463CA6AB2F5B46F28BF9D
:100BB0001A464A63CA6AB2F5B46F28BF1A468A63F6
:100BC000CA6AB2F5B46F28BF1A46CA63CA6AB2F5D8
:100BD000B46F38BF13460B64002101F0E7F978B910
:100BE00040F27010C2F20000042101F0DFF938B9C0
:100BF00040F27010C2F20000082101F0D7F910B1E4
:100C000000F022F880BD40F27010C2F200000C210A
:100C100001F0CCF9002818BF00F016F880BD0000E4
:100C2000FEE7000080B540F22C10C2F2000000F098
:100C3000C5F880BD80B540F2E800C2F2000000F0C7
:100C4000BDF880BD70470000EFF3108072B600BFA2
:100C5000FEE70000014690F82100022813D1086841
:100C6000D1E90FC3026822F00E020260026822F08E
:100C700001020260012000FA03F2CCF8042081F89E
:100C80002100002002E0042088630120002281F876
:100C90002020704780B590F82110022927D10268E2
:100CA00040F2040C1368C4F2020C23F00E0313602C
:100CB00013680CF17C018A4223F0010111601AD9FA
:100CC00040F20841C4F202018A4247D040F21C417E
:100CD000C4F202018A4245D040F23041C4F202011E
:100CE0008A4243D14FF48073CCF8003457E004219A
:100CF0008163012080BD4321C4F202018A420EDDDE
:100D00006B21C4F202018A421BDC4421C4F20201BD
:100D10008A4239D05821C4F202018A4231E00821C6
:100D2000C4F202018A4232D01C21C4F202018A427A
:100D300032D03021C4F202018A4222D14FF48072B3
:100D40002BE06C21C4F202018A4222D08021C4F23D
:100D500002018A4215D14FF080721EE00123CCF8C7
:100D600000341CE01023CCF8003418E00CF5886146
:100D70004FF480338A4208BF4FF48053CCF80034DC
:100D80000DE04FF4803208E04FF4805205E001227C
:100D900003E04FF4801200E01022CCF80020012183
:100DA00080F82110426B002180F820100AB1904792
:100DB0000021084680BD0000806B704710B5D0E967
:100DC0000FE3D0F800C0DEF80020DCF80010DA40B5
:100DD00054072DD511F004042AD0DCF80010890640
:100DE00005D4DCF8001021F00401CCF80010042236
:100DF000C4F2020202F17C018C454AD940F208415A
:100E0000C4F202018C4500F0A38040F21C41C4F200
:100E100002018C4500F0A08040F23041C4F2020192
:100E20008C4540F09D804FF48061C2F80014E1E0F1
:100E3000940743D511F0020440D0DCF80010890675
:100E400008D4DCF8001021F00A01CCF800100121D0
:100E500080F821100422C4F2020202F17C018C45C8
:100E600043D940F20841C4F202018C4500F0A5804C
:100E700040F21C41C4F202018C4500F0A08040F217
:100E80003041C4F202018C4540F09B804FF4007168
:100E90009FE04321C4F202018C453ADD6B21C4F28C
:100EA00002018C4547DC4421C4F202018C4500F06C
:100EB00094805821C4F202018C455CE0120740F195
:100EC0009C8011F0080108BF10BDDCF8001021F073
:100ED0000E01CCF80010012101FA03F2CEF8042033
:100EE000816380F82110016B93E04321C4F2020179
:100EF0008C4543DD6B21C4F202018C4550DC44215A
:100F0000C4F202018C4579D05821C4F202018C450B
:100F10006BE00821C4F202018C4561D01C21C4F2AF
:100F200002018C4564D03021C4F202018C4522D1EB
:100F30004FF480615DE06C21C4F202018C4551D018
:100F40008021C4F202018C4515D14FF0806150E040
:100F50000421C2F800144DE04021C2F8001449E019
:100F600002F588634FF480219C4508BF4FF480410F
:100F7000C2F800143EE04FF480213AE00821C4F2A8
:100F800002018C453DD01C21C4F202018C453DD0AC
:100F90003021C4F202018C4527D14FF4007136E0B4
:100FA0006C21C4F202018C452DD08021C4F20201D3
:100FB0008C451AD14FF0007129E0022109E020216F
:100FC00007E002F588634FF400319C4508BF4FF4F9
:100FD0000051C2F80014816A1BE04FF4804108E020
:100FE000042106E04FF4800103E04FF400310EE0ED
:100FF00040211160C16A01B1884710BD4FF4005112
:1010000005E0022103E04FF4001100E0202111600F
:10101000816A0022002980F8202018BF884710BD6F
:10102000014600284FF0010008BF70472DE9F04746
:1010300040F2000CC4F2020C0A684FF6F8330CF5CB
:10104000816ECBF6FD73724538BF03F5806303EB09
:10105000020E4CF6CD43CCF6CC43AEFB033E6FF014
:1010600003060CF5806506EA9E06D1E901A9D1F8D0
:101070000C803CBF0025C4F20205C1E90F560226D0
:1010800081F82160166843F6F075AE4346EA0A0619
:10109000D1E9045746EA090646EA0806D1E90643BB
:1010A0002E43374327433B43136000228A6381F872
:1010B000210081F820200020BDE8F04770470000A3
:1010C000F0B590F820C0BCF1010F2FD04FF0010E09
:1010D00080F820E090F821C0BCF1010F23D14FF03F
:1010E000020C80F821C04FF0000CC0F838C0D0E9E5
:1010F00000C4C56AC66BDCF80070102C27F001072D
:10110000CCF80070006C0EFA00F070600846CCF865
:10111000043004BF10460A46CCF80800CCF80C2076
:1011200035B10E200BE0002180F820100220F0BD28
:10113000DCF8000020F00400CCF800000A20DCF805
:1011400000100843CCF80000DCF8000040F001007B
:10115000CCF800000020F0BD2DE9F04F82B041F640
:101160000043C4F201030E680622984208BF05221C
:10117000002E009200F0E280A0F18043A3F58433BA
:1011800040F200484FEAB327C4F20108009A4FF03A
:10119000000E01234FF0000A4FF0000B052F38BF5F
:1011A0003A46009209E000BF0E680AF1010A36FAD9
:1011B0000AF20EF1040E00F0C18003FA0AFC16EAEE
:1011C0000C09F1D04E684FF6FF72C1F21002964240
:1011D00010DC122E50D8DFE806F0330A41454F4F9D
:1011E0004F4F4F4F4F4F4F4F4F4F4F484C00D1F83D
:1011F0000CB041E04FF6FF72C1F2210296420FDCC3
:101200000022C1F2110296421AD00022C1F212024B
:10121000964215D00022C1F22102964210D02BE056
:101220000022C1F2220296420AD00022C1F231020B
:10123000964205D00022C1F2320296421CD100BF74
:101240008E6846B1012E14BFC0F814C0C0F810C09B
:101250004FF0080B10E04FF0040B0DE0CF6807F1E2
:10126000080B09E04FF0000B06E0CF6807F1040B14
:1012700002E0CF6807F10C0B74460746B9F5807F92
:1012800024BF203C04373E680F2505FA04F226EA05
:1012900002020BFA04F632433A60CA79D2067FF5AD
:1012A00083AF41F21807C4F202073A684FF60843C9
:1012B00042F001023A603A68CFF6FF7302F0010291
:1012C0000192019A2AF0030242440EF00C06D7580C
:1012D00005FA06F4009DA74305FA06F63743D750F2
:1012E0004E6840F20C44F202D8F8082054BF22EABB
:1012F000090742EA0907C4F20104B202C8F80870FB
:10130000226854BF22EA090742EA0907B2032760AC
:10131000D8F804204FF0010354BF22EA090742EA3B
:101320000907F203C8F80470D8F8002054BF22EA75
:10133000090742EA0907C8F8007035E702B0BDE8BE
:10134000F08F0000002A08BF090401617047000007
:1013500040F21060C2F200000068704740F26C007A
:1013600040F21061C2F20000C2F2000100780A6887
:10137000104408607047000080B542F20000C4F2DB
:101380000200016841F010010160032000F08EF8B6
:101390000F2000F005F800F02BF8002080BD0000C1
:1013A000B0B540F26C02C2F2000240F208011278BD
:1013B000C2F200014FF47A730968B3FBF2F20446FB
:1013C000B1FBF2F1084600F01FFB0F2C4FF00105B6
:1013D0000CD858B94FF0FF3021460022002500F00C
:1013E00039F840F27000C2F2000004602846B0BD37
:1013F00082B041F21800C4F202000168022241F0FA
:1014000001010160016801F0010101910199416848
:1014100041F080514160406800F080500090009899
:101420000420C4F20100016862F31A61016002B095
:1014300070470000002848BF704700F01F010122DC
:1014400002FA01F14EF200124009CEF2000242F817
:101450002010704710B54EF60C5CCEF2000CDCF894
:101460000030C3F3022E8EF00704042C28BF04249E
:10147000BEF103034FF0FF3E0EFA04F438BF002321
:10148000A14399400EFA03F39A4300F00F03043B83
:101490001143634409010C3300F16042B0F1FF3F96
:1014A000C8BF02F56443197010BD00004EF60C5120
:1014B000CEF200010A684FF6FF031A4060F30A22D9
:1014C00042F0806040F0FD70086070472DE9F04305
:1014D00081B0002800F0858042F20008C4F20208C2
:1014E0000446D8F800000D4600F0070088420CD2F0
:1014F000D8F8000020F007002843C8F80000D8F80A
:10150000000000F00700A8426BD1206841F20409F6
:101510008107C4F2020917D5410705D5D9F8001093
:1015200041F4E061C9F80010010705D5D9F80010B1
:1015300041F46051C9F80010D9F80010A26821F0F8
:10154000F0011143C9F80010C00741D1D8F80000DC
:1015500000F00700A8420CD9D8F8000020F00700DE
:101560002843C8F80000D8F8000000F00700A8429F
:1015700037D12068410707D5D9F80010E26821F477
:10158000E0611143C9F80010000708D5D9F8000040
:10159000216920F4605040EAC100C9F80000D9F880
:1015A000002002F00C00082841F20020C0F27A006E
:1015B0004ED143F2B863C2F38341C0F60003595CD5
:1015C000D20339D440F60010C0F23D0048433FE05A
:1015D0006068022809D0012829D159F8041C890320
:1015E00007D4012001B0BDE8F08359F8041C89013B
:1015F000F7D5D9F8001021F003010843C9F800001D
:10160000FFF7A6FE064641F2883700BFD9F8000072
:10161000616800F00C00B0EB810F97D0FFF798FEE7
:10162000801BB842F2D9032001B0BDE8F08359F81D
:10163000041C8907D5D5DCE7D9F8002043F2B6634E
:10164000C2F34042C0F600039A5C4843B0FBF2F09C
:10165000D9F8001043F29E62C1F30311C0F60002F4
:10166000515C40F2080220FA01F140F27000C2F22F
:1016700000000068C2F200021160FFF791FE002036
:1016800001B0BDE8F083000040F2080041F204011F
:10169000C2F20000C4F202010068096843F2AE62BF
:1016A000C1F30221C0F60002515CC840704700003F
:1016B00040F2080041F20401C2F20000C4F202014B
:1016C0000068096843F2AE62C1F3C221C0F60002AD
:1016D000515CC840704700002DE9F04182B00028FD
:1016E00000F0D7800446007841F20006C007C4F23B
:1016F000020644D0706800F00C00042817D070680F
:1017000000F00C00082802D17068C0030FD465688F
:101710002DB1B5F5A02F10D0B5F5803F11D03068B0
:1017200020F480303060306820F480200CE0306895
:10173000800324D5606810BBABE0306840F48020A3
:101740003060306840F480303060FFF701FE002DDB
:10175000054611D03068800311D4FFF7F9FD401B16
:101760006428F7D916E100BFFFF7F2FD401B64289B
:101770004FF0030000F28A8030688003F4D42078B0
:10178000800718D5706810F00C0F07D0706800F053
:101790000C00082827D17068C00324D43068800763
:1017A00002D52069012874D13068616920F0F80001
:1017B00040EAC1003060207800074FD5A06940B3EF
:1017C0000020C4F242200121C0F88014FFF7C0FDC0
:1017D000054600BF706A80072DD4FFF7B9FD401B96
:1017E0000228F7D9D6E02069002840F20000C4F2B0
:1017F000422000F0A68001210160FFF7A9FD054607
:1018000030688007D0D4FFF7A3FD401B0228F7D92A
:10181000C0E00020C4F242200021C0F88014FFF78D
:1018200097FD0546706A800718D5FFF791FD401BAC
:101830000228F7D9AEE040F20800C2F200000068CA
:1018400044F6D351C1F26201A0FB0101480A0190A4
:1018500000BF0198411E00280191F9D1207840076E
:101860001BD4E5698DB1706800F00C00082846D1E2
:10187000012D0ED07068216A00F480328A4208D1AE
:10188000616A00F47010884203D1002002B0BDE804
:10189000F081012002B0BDE8F081F06910F08058BD
:1018A00008D1F06940F08050F061F06900F080509C
:1018B0000090009847F20007C4F200073868C0059E
:1018C0000FD4386840F480703860FFF741FD05465A
:1018D0003868C00505D4FFF73BFD401B6428F7D9E5
:1018E00058E0E5681DB1052D3CD0012D3ED0306A91
:1018F00020F001003062306A20F0040039E0002757
:10190000C4F2422700203866FFF722FD022D05466B
:101910000CD100BF3068800154D5FFF719FD401B82
:1019200002284FF00300F5D9B0E700BF306880010E
:10193000ABD5FFF70DFD401B02284FF00300F5D992
:10194000A4E700210160FFF703FD0546306880072A
:101950007FF531AFFFF7FCFC401B02284FF003007E
:10196000F4D993E7306A40F004003062306A40F006
:1019700001003062FFF7ECFC002D054641F288378C
:1019800014D000BF306A800713D4FFF7E1FC401B7E
:10199000B842F7D9032002B0BDE8F081FFF7D8FCC8
:1019A000401BB8424FF003003FF670AF306A80072B
:1019B000F4D4B8F1000F7FF454AFF06920F08050F8
:1019C000F0614EE7206AB0F5803F05D17168A268EA
:1019D00021F40031114371607168626A21F474115D
:1019E00010430843706001203866FFF7B1FC0446DD
:1019F000306880013FF549AFFFF7AAFC001B0228C1
:101A00004FF00300F4D941E7411E0020B0EB116F05
:101A10001CBF012070474EF21002CEF2000251604E
:101A20004EF62351CEF20001F0230B700721906097
:101A30001160704710B590F83C20012A4FF0020267
:101A400041D0012380F83C3080F83D200268D2F874
:101A500004E0D2F808C00C682EF07003234340F66F
:101A6000FF34C4F20004A24253600FDCB2F1804F95
:101A70001ED040F20043C4F200039A4218D040F650
:101A80000003C4F200039A4212D016E040F600436D
:101A9000C4F200039A420BD043F20043C4F20103A4
:101AA0009A4205D042F60043C4F201039A4204D19F
:101AB00049682CF08003194391600121002280F8CD
:101AC0003D1080F83C20104610BD0000002804BFE7
:101AD0000120704710B5044690F83D0028B9002059
:101AE00084F83C00204600F01FF8022084F83D00F6
:101AF0002068211D01F068F8012084F8460084F870
:101B00003E0084F83F0084F8400084F8410084F8E7
:101B1000420084F8430084F8440084F8450084F8C7
:101B20003D00002010BD000081B0006840F60001BB
:101B3000C4F20001884201D001B0704741F21C009C
:101B4000C4F20200016841F004010160006800F085
:101B500004000090009801B07047000080B590F834
:101B60003C20012A4FF0020200F0C280012380F8DD
:101B70003C3080F83D20D0F800C04FF67772DCF89A
:101B8000083023EA0202CCF808200B684F2B28DC2F
:101B90001F2B43DD202B44D0302B42D0402B40F074
:101BA000A980D1F804E0C968DCF82030DCF82020F6
:101BB00022F00102CCF82020DCF8182022F0F002FC
:101BC00042EA011123F00A0242EA0E02CCF8181090
:101BD000CCF82020DCF8081041F0470121F030015A
:101BE0007DE06F2B25DDB3F5005F46D0B3F5805F58
:101BF00077D0702B7ED1D1E901E3C968DCF80820E9
:101C000043EA0E0322F47F4243EA01211143CCF858
:101C10000810DCF8081041F0770160E00BB1102BE0
:101C200068D1DCF8081021F07001194341F0070178
:101C300055E0502B34D0602B5CD1D1F804E0C9685A
:101C4000DCF82030DCF8202022F01002CCF8202034
:101C5000DCF8182022F4704242EA013123F0A0029D
:101C600042EA0E12CCF81810CCF82020DCF808104C
:101C700041F0670121F0100131E0D1E901E3C968C9
:101C8000DCF8082043EA0E0322F47F4243EA0121F4
:101C90001143CCF80810DCF8081041F480411EE034
:101CA000D1F804E0C968DCF82030DCF8202022F00C
:101CB0000102CCF82020DCF8182022F0F00242EAE1
:101CC000011123F00A0242EA0E02CCF81810CCF8F7
:101CD0002020DCF8081041F0570121F02001CCF859
:101CE00008100022012180F83D10002180F83C10EE
:101CF000104680BD0122F5E72DE9F04190F83C3017
:101D0000012B04BF0220BDE8F0814FEAB20201239B
:101D1000032A80F83C3000F21381DFE802F002462B
:101D20008ED7036843F200461D6A1A6A25F0020541
:101D300022F001021A621A465C6852F818EF8F68A6
:101D4000D1F800C0C4F20106B34245EA070505D048
:101D500042F60047C4F20107BB4205D1CF6825F027
:101D60000C0527F004073D43B34205D042F6004678
:101D7000C4F20106B34205D1D1E9056724F44074E9
:101D800034433C432EF0730747EA0C075C609F61C5
:101D90004F6809695F631D629F6947F008079F618B
:101DA0009F6927F004079F61C6E0036843F200487B
:101DB0001D6A1A6A25F0200522F010021A621A46DE
:101DC0005C6852F818EF8F68D1F800C0C4F20108BF
:101DD000434545EA071505D042F60047C4F201071E
:101DE000BB4207D1CF686FF0400625F0C00506EA78
:101DF00007163543434505D042F60046C4F20106B6
:101E0000B34207D1D1E9056724F4406444EA86046B
:101E100044EA87042EF4E64747EA0C275C609F619A
:101E20004F6809699F631D629F6947F400679F615E
:101E30009F6927F480679F617DE0036843F2004853
:101E40001D6A1A6A25F4007522F480721A621A4615
:101E50005C6852F81CCF8F68D1F800E0C4F201082A
:101E6000434545EA072505D042F60047C4F201077D
:101E7000BB4208D1CF6840F2FF463F0225F44065DF
:101E800027EA06063543434505D042F60046C4F22C
:101E90000106B34207D1D1E9056724F4405444EA6E
:101EA000061444EA07142CF0730747EA0E075C6037
:101EB000DF614F680969DF631D62DF6947F008076A
:101EC000DF61DF6927F00407DF6135E0036843F273
:101ED0000047D3F820C01A6AC4F2010722F48052E6
:101EE0001A621A465C6852F81C5FD1F800E08E68EE
:101EF000BB4205D042F60047C4F20107BB4204D101
:101F00004F6924F4804444EA87142CF4005747EACC
:101F1000063725F4E64646EA0E265C60DE614E682A
:101F200009691E641F62DF6947F40067DF61DF69CA
:101F300027F48067DF6109021368194300231160E9
:101F4000002180F83C101846BDE8F081002804BF4D
:101F50000120704710B5044690F83D0028B90020D4
:101F600084F83C00204600F01FF8022084F83D0071
:101F70002068211D00F028FE012084F8460084F826
:101F80003E0084F83F0084F8400084F8410084F863
:101F9000420084F8430084F8440084F8450084F843
:101FA0003D00002010BD00007047000041B108292D
:101FB00009D0042914BF00F1410200F13F0204E0FE
:101FC00000F13E0201E000F140021278012A1CBF3C
:101FD00001207047022241B1082909D0042914BF09
:101FE00080F8412080F83F2004E080F83E2001E0A6
:101FF00080F84020006801F01F010122036A02FA04
:1020000001F123EA01020262026A0A4340F6FF314B
:10201000C4F200018842026217DD40F60042C4F2B9
:102020000002904220D043F2004CC4F2010C604503
:1020300005D042F60043C4F2010398421BD1436C21
:10204000884243F4004343641BDCB0F1804F0BD063
:1020500040F20041C4F20001884205D040F6000180
:10206000C4F20001884206D1816801F00701062907
:1020700004BF00207047016841F0010101600020A9
:1020800070479042F0D06045EED042F60041C4F275
:1020900001018842E8D0EEE77047000010B5044621
:1020A000206850E8030F216820F4907041E8030293
:1020B000002AF5D1206850E8050F216820F00100C2
:1020C00041E80502002AF5D1206B01280AD100BFA2
:1020D000206850E8030F216820F0100041E8030257
:1020E000002AF5D120684069400619D5206850E8DB
:1020F000050F216820F0400041E80502002AF5D1D3
:10210000E06B68B100214163FEF7A4FD40B1E06BD4
:10211000FEF752FE202803D110206064032010BD7A
:1021200000202021E08584F84210206310BD0000CB
:1021300040F2B811C2F20001884218BF704780B562
:1021400082B040F20020C2F2000001220270486C0E
:10215000000707D5002001900868016801914068D8
:102160000190019840F2B81040F20E61C2F20000F6
:10217000C2F20001012200F06BFA02B0BDE880401B
:1021800070470000B0B582B0044600680168C368BB
:10219000426901F02F05202D03F0200505D125B15E
:1021A000204600F007FE02B0B0BD5FEA017C1EBF12
:1021B00002F0010E03F4907212EB0E0279D1226B41
:1021C000012A05D111F0100218BF13F0100235D109
:1021D0000A0622D513F080021FD094F8411021295D
:1021E0002AD1A168B1F5805F03D12169002900F0EF
:1021F0003A81216A4A1C226209784160E18C0139E6
:102200000A04E18418D1C16821F08001C160C1686D
:1022100041F04001C16002B0B0BD49060CD513F0D9
:10222000400109D0C16821F04001C160202084F83C
:102230004100204600F0BEFA02B0B0BD002101917D
:10224000016801914168019101994069400638D4C3
:10225000A08DE18DE28D002A1CBF401A5FEA00418B
:10226000EAD000BF216851E8031F226821F4907171
:1022700042E80313002BF5D1216851E8051F2268BD
:1022800021F0010142E80513002BF5D1202184F84B
:1022900042100021216300BF216851E8031F22681A
:1022A00021F0100142E80313002BF5D102216163F4
:1022B0004AE0C80718BF13F480704BD148074FD4C9
:1022C00055E0E06B016849688AB2002AB4D0A38D5A
:1022D0009A42B1D2E1858069202830D0206850E848
:1022E000030F216820F4807041E80302002AF5D131
:1022F000206850E8050F216820F0010041E8050240
:10230000002AF5D1206850E8050F216820F0400030
:1023100041E80502002AF5D1202084F8420000207F
:10232000206300BF206850E8030F216820F01000F0
:1023300041E80302002AF5D1E06BFEF78BFC022096
:102340006063A08DE18D401A81B22046FFF7A4FEA4
:1023500002B0B0BD606C40F001006064480706D573
:10236000BEF1000F03D0606C40F00200606488078B
:1023700006D5BEF1000F03D0606C40F0040060642D
:10238000BCF1000F06D555EA0E0003D0606C40F09A
:1023900008006064606C00283FF44EAF11F020002C
:1023A00018BF002D02D0204600F004FD20684069CF
:1023B000616C00F0400001F00801401847D000BFF8
:1023C000206850E8030F216820F4907041E8030270
:1023D000002AF5D1206850E8050F216820F001009F
:1023E00041E80502002AF5D1206B01280AD100BF7F
:1023F000206850E8030F216820F0100041E8030234
:10240000002AF5D1202084F84200002020632068B3
:102410004069400622D500BF206850E8050F2168BA
:1024200020F0400041E80502002AF5D1E06BA8B198
:1024300042F6B141C0F600014163FEF72BFC0028D3
:102440003FF4FAAEE06B416B884702B0B0BD204666
:10245000FFF76EFE0020606402B0B0BD2046FFF7BB
:1024600067FE02B0B0BD216A31F8022B6FF35F2224
:1024700042602162C2E60000002804BF01207047CC
:1024800010B5044690F8410028B9002084F84000B7
:10249000204600F05FF8242084F841002068D4E949
:1024A0000212C36823F40053C360036923F440534A
:1024B0001A430261D4E904231143C268194341F26B
:1024C0000C639A431143C1604169A26921F44071D0
:1024D000114343F60002C4F201029042416102D06E
:1024E000FFF7D2F801E0FFF7E3F8626819214843EB
:1024F0009100B0FBF1F048F21F51C5F2EB11A0FBC7
:1025000001235A096FF0630302FB0300322303EB3C
:102510000010A0FB0101F02303EA5113206803EB34
:102520000212C1F3431111448160016921F4904109
:102530000161416921F02A014161C16841F4005102
:10254000C16000202021606484F8411084F84210AA
:10255000606310BD2DE9F04186B040F600050446E9
:10256000C4F20105006805F540510027884205972F
:10257000CDE90377029702D006B0BDE8F08141F2C1
:102580001800C4F20200016802AE41F4804101600B
:10259000016840F2440801F4804101910199016809
:1025A000C4F2020841F0040101600068314600F005
:1025B0000400019001984FF40070029002200390F3
:1025C000032005902846FEF7C7FD4FF48060CDE953
:1025D0000207284631460497FEF7BEFD40F22C154F
:1025E000C2F2000510208026C5E900802846C5E912
:1025F0000276C5E90477C5E90677FEF711FD0028E4
:1026000018BFFEF721FBA5636C6240F2E80508F1F4
:102610001400C2F200050021C5E900012846C5E901
:102620000216C5E90411C5E90611FEF7F9FC0028F8
:1026300018BFFEF709FB252000210022E5636C622C
:10264000FEF708FF2520FEF7F5FE06B0BDE8F08195
:1026500090F84230202B1CBF0220704700294FF019
:10266000010318BF002A01D11846704700230363F5
:10267000816222218285C285436480F8421001690B
:1026800021B10168CA6842F48072CA600068002300
:10269000416941F001014161C16841F02001C1601F
:1026A0001846704740F2B811C2F20001884218BFC4
:1026B0007047B0B540F20E60C2F200000578FEF738
:1026C00047FE40F20C6CC2F2000CBCF800305A1C01
:1026D00091B27F2940F20821C2F2000188BF002296
:1026E000098894B28C420DD140F20420C2F200005D
:1026F00001680131016040F20020C2F200000121B6
:1027000001700AE040F20C21C2F2000101EBC304A7
:1027100001F833506060ACF8002040F2B81040F28D
:102720000E61C2F20000C2F200010122FFF790FF29
:10273000BDE8B0407047000070B5044690F8410015
:1027400020281CBF022070BD4FF0010089B3002A71
:10275000134608BF70BD4FF0000C21202162A384F6
:10276000E384C4F844C084F841002268A06B42F6B8
:10277000695E42F6A95542F6C146C0F6000EC0F6A3
:102780000005C0F600060432C0E90AE5C0E90C6C99
:10279000FEF796FC20686FF040010160206850E869
:1027A000050F216840F0800041E80502002AF5D1BC
:1027B000002070BD7047000070470000FEE7000079
:1027C00080B582B041F21400C4F202000168002218
:1027D00041F0010101600068002100F0010001905A
:1027E00001980E20FEF736FE0E20FEF723FE0F2086
:1027F00000210022FEF72EFE0F20FEF71BFE02B086
:1028000080BD000070B586B0002641F21800CDE909
:102810000466CDE90266C4F20200016840F60004D5
:1028200041F0040101600168C4F2010401F00401F7
:10283000019101990168002241F0080101600068DE
:10284000C02100F00800019001982046C025FEF745
:1028500079FD01200295CDE90306022002AD059025
:1028600020462946FEF778FC4FF48050CDE9020659
:10287000204629460496FEF76FFC06B070BD0000A6
:10288000B0B594B040F6000540F27010C4F20005F7
:102890000021C2F20000482244F61F63CDE90D1169
:1028A000CDE90B110991CDE90711CDE90511CDE96C
:1028B0000311CDE90111C0E90052C0E90213016121
:1028C0008161FFF703F9002818BFFEF7BDF94FF447
:1028D00080500B9040F27010C2F200000BA9FFF77D
:1028E0003DF9002818BFFEF7AFF940F27010C2F2B0
:1028F0000000FFF72BFB002818BFFEF7A5F940F2F8
:1029000070100024C2F2000008A9CDE90844FFF7C6
:1029100091F8002818BFFEF797F96020CDE901046F
:102920000220039040F27010C2F2000001A90022C0
:102930000594FFF7E1F9002818BFFEF785F940F28A
:102940007010C2F2000001A90422FFF7D5F9002897
:1029500018BFFEF779F940F27010C2F2000001A929
:102960000822FFF7C9F9002818BFFEF76DF940F2F9
:102970007014C2F2000401A920460C22FFF7BCF932
:10298000002818BFFEF760F921680020A942CDE9B0
:1029900012001190109001D014B0B0BD41F2180097
:1029A000C4F20200016841F008010160006810A94A
:1029B00000F008000F900F984FF4707010900220F4
:1029C0001190139005F58230FEF7C6FB14B0B0BD30
:1029D00080B540F2B81043F60001C2F20000C4F224
:1029E000010100234FF00C0C4FF4165280E80E004A
:1029F000C0E90333C0E905C3C361FFF73DFD00280B
:102A000018BFFEF721F980BDFEE70000FEE70000D9
:102A100070470000704700002DE9F04381B040F29C
:102A2000B810C2F20000FFF739FB40F20C61C2F2AD
:102A300000010020088040F20821C2F20001088055
:102A400040F20021C2F20001087040F20421C2F2FB
:102A50000001086040F20E61C2F20001087040F20D
:102A60000C01C2F2000100228B180C32602A58605F
:102A70001872F9D14EF6FC57CEF20007386841F2D1
:102A8000040640F08070CEF20006386056F8040C60
:102A900040F2080840F0010046F8040CC2F20008B9
:102AA000D8F8000044F6D359C1F26209A0FB09012D
:102AB00088094FF4FA7101E0013907D0326800BF8C
:102AC00033689B1A8342F7D200BFF9E740F600044F
:102AD000C4F20104204640210022FEF733FC2046C8
:102AE00080210122FEF72EFC386840F080703860AB
:102AF00056F8040C40F0010046F8040CD8F8000029
:102B0000A0FB090188094FF4FA7101E0013907D0EF
:102B1000326800BF33689B1A8342F7D200BFF9E7DF
:102B200040F2B815C2F2000540F20001C2F2000105
:102B300028460622FFF700FE002818BFFEF784F89B
:102B4000386840F08070386056F8040C40F001009E
:102B500046F8040CD8F80000A0FB090188094FF4DE
:102B6000FA7101E0013907D0326800BF33689B1A5F
:102B70008342F7D200BFF9E7204640210022002619
:102B8000FEF7E0FB204680210022FEF7DBFB0096EB
:102B90002868012201680091406840F20E610090AF
:102BA0000098C2F200012846FFF752FD002818BF26
:102BB000FEF74AF801B0BDE8F083000080B5FEF7EB
:102BC000CDFB80BD7047000010B540F6FF3E0368A6
:102BD000C4F2000E43F2004C7045C4F2010C20DC3C
:102BE000B0F1804F2BD040F20042C4F2000290427C
:102BF00025D040F60002C4F2000290421FD070457A
:102C000023DCB0F1804F2ED040F20042C4F200022B
:102C1000904228D040F60002C4F20002904222D036
:102C200025E040F60042C4F20002904207D0604521
:102C300005D042F60042C4F201029042DFD14A6858
:102C400023F0700313437045DBDD40F60042C4F20D
:102C50000002904207D0604505D042F60042C4F21F
:102C60000102904203D1CA6823F44073134323F056
:102C700080024B69D1F800E08C681A43604502601D
:102C8000C462C0F828E005D042F60042C4F2010256
:102C9000904201D109690163012141610169C907BC
:102CA00008BF10BD016921F00101016110BD0000E4
:102CB00080B5406A0021C185C184FFF739FA80BD23
:102CC00080B5406A0168496990F84120212A12D1F3
:102CD00011F080010FD00021C18400BF016851E8CC
:102CE000031F026821F0C00142E80313002BF5D155
:102CF000202180F841100168496990F84220222A79
:102D00002BD111F0400128D00021C185016851E884
:102D1000031F026821F4907142E80313002BF5D1E0
:102D2000016851E8051F026821F0010142E805131E
:102D3000002BF5D1016B01290AD100BF016851E8D0
:102D4000031F026821F0100142E80313002BF5D1A4
:102D5000202180F8421000210163416C41F01001F4
:102D60004164FFF7E5F980BD80B50168406A0968F4
:102D7000890616D40021C184016851E8051F026844
:102D800021F0800142E80513002BF5D1016851E8DC
:102D9000031F026841F0400142E80313002BF5D104
:102DA00080BDFFF707FD80BD80B5406AFFF704FDD9
:102DB00080BD000080B582B090F8421022291ED15B
:102DC0008268B2F5805F02D1016900294AD0816A28
:102DD000B2F5805F07D00AB9026922B10268526871
:102DE00002F07F0201E0026852680A700121826AE3
:102DF00011448162C18D01390A04C18501D002B03C
:102E000080BD0168CA6822F02002CA60CA6822F444
:102E10008072CA604A6922F001024A61202180F86A
:102E2000421000214163026B012A23D1016300BFDC
:102E3000016851E8031F026821F0100142E8031302
:102E4000002BF5D101680A68D20606D5002201924E
:102E50000A680192496801910199818DFFF71CF977
:102E600002B080BD0168826A49686FF35F211180FA
:102E70000221BCE7FFF716FC02B080BD80B540F22E
:102E8000B810C2F20000FFF77DF980BDFEE7000038
:102E900090B0FEF771FA06AC20462821FDF7B6F98E
:102EA000012006900A904FF4E01000254FF4803185
:102EB00002260F9020460595CDE90355CDE9015531
:102EC000CDE90715CDE90D61FEF706FC18B1EFF36A
:102ED000108072B6FEE70F20CDE901064FF4806046
:102EE000CDE9040501A802210395FEF7EFFA20B110
:102EF000EFF3108072B600BFFEE7FFF783FCFFF729
:102F00005FFCFFF765FDFFF7BBFCFDF745FEFFF734
:102F100083FD4DF6F0084EF66C67CFF6FF78CFF6DE
:102F2000FF7700BF44F65070FDF7D4F9044644F62D
:102F30004C30FDF7CFF9054645F24130FDF7CAF9AF
:102F4000064645F64D00FDF7C5F985F00101214023
:102F50000B4618BF42F21073002C424618BF0022E5
:102F6000002D08BF1A46002986F0010118BF1A4635
:102F700010EA01052B46394618BF41F29413002888
:102F800018BF0021002E08BF1946002D18BF194692
:102F9000104644F6206240F2DC53FDF7CBFBC1E75C
:102FA00090EA010F48BF81F0004100F10A83421A04
:102FB0003CBF801A89184FEAD052A2EBD1534FF090
:102FC0007F4C1CEA410F18BF9CEA026F00F03B8067
:102FD0004FF0004C4CEA00204CEA012121FA03FC9E
:102FE00010EB0C0C1ED202F1FF325FEA1C2040EB0A
:102FF000C25038BF70471CF07F0F4FEA400C18BF1B
:10300000BCF17F4F38BF7047C3F12003994008BF20
:1030100020F00100BCF17F4F38BF7047A0F1C040E5
:1030200000F0C3BA4FEA3C00000A40EBC25028BF90
:103030001CF0FF0F4FEA400CE6D018BFBCF17F4FE9
:1030400038BF7047EAE79CEA026F05D010EA5C0FD0
:1030500008BF00F00040704710B500F060FA00BFF4
:1030600064FBBE3E10B500F0F5F80CBF0120002057
:1030700010BD10B500F0EEF814BF0120002010BD07
:1030800010B500F063F98CBF0120002010BD10B511
:1030900000F05CF92CBF0120002010BD10B500F03D
:1030A00089F994BF0120002010BD10B500F082F90D
:1030B00034BF0120002010BD401058BFC0F1404077
:1030C000491058BFC1F140418142EFF30080704781
:1030D0004FF47F0C1CEAD0121EBF1CEAD11392EAF7
:1030E0000C0F93EA0C0F00F0858090EA010F48BFA7
:1030F00042F4807240F4000C41F400002CF07F4157
:1031000020F07F4000B5A2EB030281420FF2081CC1
:10311000ACEB504E9EF800E0C0F100004FEA4E0EBE
:1031200000FB0EFC38BF49004FEA2C1C0CFB0EF3D1
:103130004FEACE1E0EEB635E4FEA112C0EFB0CFC29
:103140004FEAC1214FEA1C5300FB031102F5FA02BA
:103150004FEA112C0EFB0CFC4FEA01314FEADC4C1C
:1031600000FB0C1142EB2242C14228BF09184CEB74
:1031700003335DF804EB10EB410143EBC250B2F5B1
:103180007C0F38BF704729D512F0F00F1CBF00F13B
:10319000C04000F0004070470081828384858687AC
:1031A00088898B8C8D8E8F919293959697999A9C06
:1031B0009D9FA0A2A3A5A7A8AAACAEB0B2B3B5B775
:1031C000B9BCBEC0C2C5C7C9CCCED1D4D7D9DCDF4B
:1031D000E2E6E9ECF0F3F7FAFE0000004FEA400CFB
:1031E0000CF1807CBCF17E4F28BF7047B0F1C0402D
:1031F00000F0DBB90CEAD11390EA010F48BF42F4AA
:103200008072624538BF634507D213F47F0F16D032
:1032100080EA010000F00040704710B500F07FF92F
:10322000097EFC3E00F005B880EA010000F0004095
:10323000704780EA010000F0004000F0B6B912F4D7
:103240007F0F04BF0248704780EA010000F0ADB96B
:103250000000C07F50EA010C00F113801CF5000F44
:1032600058BFBCF5000F01D48842704707D710F54E
:10327000000F58BF11F5000F15D4884270478942DE
:1032800070471CF5000F04D5BCF5000FF7D581423F
:1032900070474FF0807C1CEB400F38BF1CEB410F98
:1032A00001D28142704710B500F039F992244900EB
:1032B0004FF000504FF08051FFF7FEBE41000B0E63
:1032C000D3F19E0208D950F400034FEA032323FAF6
:1032D00002F048BF4042704710B500F020F900BF2F
:1032E00049922480002070476FF0004282EA20005B
:1032F0007047000010F0004148BF4042B0FA80F330
:1033000010FA03F2C3F19D030BD051EAC35101EB54
:103310001220530638BF704700F1010008BF20F0AB
:1033200001007047B0FA80F310FA03F2C3F19D0375
:103330000AD0D90501EB1220530638BF704700F1BF
:10334000010008BF20F001007047000050EA010CA6
:1033500000F113801CF5000F58BFBCF5000F01D41D
:103360008842704707D710F5000F58BF11F5000FBE
:1033700015D488427047894270471CF5000F04D568
:10338000BCF5000FF7D5814270474FF0807C1CEBF5
:10339000400F38BF1CEB410F01D28142704710B57E
:1033A00000F0BDF8922449004FF080504FF00051DA
:1033B000FFF782BE50EA010C00F113801CF5000FEC
:1033C00058BFBCF5000F01D48842704707D710F5ED
:1033D000000F58BF11F5000F15D48842704789427D
:1033E00070471CF5000F04D5BCF5000FF7D58142DE
:1033F00070474FF0807C1CEB400F38BF1CEB410F37
:1034000001D28142704710B500F089F8922449003A
:103410004FF000504FF08051FFF74EBE4FF47F0C3D
:103420001CEAD0121EBF1CEAD11392EA0C0F93EAD9
:103430000C0F00F0478090EA010F48BF42F4807201
:103440004FF0004C4CEA00204CEA012102EB030251
:10345000A0FB0113A2F50002002918BF43F00103ED
:103460005B0028BF4FEA330342EB22425FEA132C92
:103470004CEBC2502EBFBCEB436FB2F57C0F7047D4
:103480004FEA036CBCF1004F08BF20F00100B2F519
:103490007C0F38BF70470BD582F0FF0212F5803FDA
:1034A000C8BF704700F1C040D8BF00F0004070476F
:1034B00000F5000C5FEA4C0C48BF7047B0F1C0400B
:1034C00000F073B80CEAD11390EA010F48BF42F440
:1034D0008072624538BF634504D280EA010000F083
:1034E0000040704710B500F01AF800BF8900013E97
:1034F00000F007B800F009B85FEA410C5FEA1C6C05
:1035000008D080EA010000F050B85FEA400C5FEAA2
:103510001C6CF6D14FF00040A0F5800070470EF112
:10352000020E2EF0030E5EF8044B244204D44FEA40
:103530004102B2F17F4F11D84FEA4003B3F17F4F00
:103540000CD80ED14FEAD07C0CEB4C0C0CF1020CD9
:10355000B2F17F4F08BF4CEBD17C04E04FF0080C78
:1035600001E04FEAD17C0CEB4C0324FA03F404F0A5
:103570000704B4F1040C06D20EEB840CBDE8104035
:103580004CF0010C6047DFE80CF0070802024FF036
:103590000040A0F5800010BD0846420018BFD2F1DF
:1035A000807288BF00F0004010BDFF2141EAD0507A
:1035B000C005704790EA010F48BF81F000413FF518
:1035C000F6AC421A04D882F00042A0EB020011448B
:1035D0004FEAD052A2EBD1534FF07F4C1CEA410F7F
:1035E00018BF9CEA026F4AD04FF0004C4CEA002012
:1035F0004CEA012121FA03FCB0EB0C0C0FD412F0C1
:10360000FE0F36D05FEA4C001DD5001240EBC250D1
:1036100038BF70471CF03F0F18BF70470BE05FEAE0
:103620001C20A2F1010240EBC25038BF70471CF0D1
:103630007F0F18BF7047C3F12003994014BF401E8D
:1036400020F0010070474FEA1223800808BF70473E
:10365000B0FA80FCA2EB0C02CCF1280C60FA0CF062
:1036600093EA122F04BF00EBC25070474FEAC370B9
:103670007047130A5FEADC1008BF7047F6E79CEA60
:10368000026F04D010EA5C0F08BF0020704710B52D
:10369000FFF745FF40DFF63E81F000407047000035
:1036A00000000000000001020304060708090000F2
:1036B00000000102030401020203040506070809D1
:1036C0000A0B0C0D0E0F1010E83600080000002049
:1036D000780000006C0100086037000878000020C6
:1036E000A00B000088010008C0FFFF193E00000089
:1036F00000127A0051570000000000000000000096
:103700005A58000000000000000000004153000073
:1037100000000000000000004D5800000000000004
:1037200000000000504F00000000000000000000FA
:103730004C4B00000000000000000000424300006D
:1037400000000000000000004449000000000000EC
:103750000000000001000000100000000000000058
:0400000508000131BD
:00000001FF
