:020000040800F2
:10000000000C0020CD010008612800087D260008B2
:100010005D28000825080008C13000080000000025
:10002000000000000000000000000000912800080F
:100030007508000800000000652800082D29000848
:10004000E7010008E7010008E7010008E7010008F0
:10005000E7010008E7010008E7010008E7010008E0
:10006000E7010008E7010008E7010008E7010008D0
:10007000E7010008E701000829080008390800081E
:10008000E7010008E7010008E7010008E7010008B0
:10009000E7010008E7010008E7010008E7010008A0
:1000A000E7010008E7010008E7010008E701000890
:1000B000E7010008E7010008E7010008E701000880
:1000C000E7010008E7010008E7010008E701000870
:1000D000E7010008B1300008E7010008E701000867
:1000E000E7010008E7010008E7010008E701000850
:1000F000E7010008E7010008E7010008E701000840
:10010000E7010008E7010008E7010008E70100082F
:10011000E7010008E7010008E7010008E70100081F
:10012000E7010008E7010008E7010008E70100080F
:1001300000F002F800F03AF80AA090E8000C8244BF
:100140008344AAF10107DA4501D100F02FF8AFF29C
:10015000090EBAE80F0013F0010F18BFFB1A43F0A5
:10016000010318476036000080360000103A24BFB3
:1001700078C878C1FAD8520724BF30C830C144BF0C
:1001800004680C607047000000230024002500264E
:10019000103A28BF78C1FBD8520728BF30C148BFEA
:1001A0000B6070471FB51FBD10B510BD00F058F8AB
:1001B0001146FFF7F7FF02F0A1FF00F076F803B455
:1001C000FFF7F2FF03BC00F07DF80000094880470C
:1001D00009480047FEE7FEE7FEE7FEE7FEE7FEE729
:1001E000FEE7FEE7FEE7FEE704480549054A064B41
:1001F000704700009B29000831010008000600201C
:10020000000C002000080020000800204FF0000231
:1002100000B5134694469646203922BFA0E80C50FC
:10022000A0E80C50B1F12001BFF4F7AF090728BFD7
:10023000A0E80C5048BF0CC05DF804EB890028BF53
:1002400040F8042B08BF704748BF20F8022B11F07C
:10025000804F18BF00F8012B7047704770477047F8
:10026000754600F02BF8AE4605006946534620F06F
:100270000700854618B020B5FFF7B6FFBDE820405F
:100280004FF000064FF000074FF000084FF0000B52
:1002900021F00701AC46ACE8C009ACE8C009ACE805
:1002A000C009ACE8C0098D46704710B50446AFF3ED
:1002B00000802046BDE81040FFF781BF004870472E
:1002C000A005002001491820ABBEFEE72600020071
:1002D0007047000010B500B910BD104B1B6843F00B
:1002E00080730E4C23600E4B1B6843F001030C4CD3
:1002F00023600C4B1B684FF47A74B3FBF4F109E0F4
:10030000074B5A6800E000BF054B5B689B1A8B42A5
:10031000F9D3401E0028F3D100BFDDE7FCED00E07B
:10032000001000E00C00002000200DE0002100EB98
:100330004002074B03EB8202516000EB400203EBEB
:1003400082021172411C88B20828EFDB704700005E
:100350001C00002010B50146002018E000EB400210
:100360000C4B03EB8202127A7AB100EB400203EBF2
:10037000820252688A1AB2F5967F06D3002200EBF9
:100380004003044C04EB83031A72421C90B2082809
:10039000E4DB10BD1C000020024600210DE001EB53
:1003A0004100084B33F82000904204D101EB41009A
:1003B00003EB80007047481C81B20829EFDB002066
:1003C000F8E700001C00002070B5054600F012F8A8
:1003D00000F02EF800F00EF800F05AFF0646FFF786
:1003E000B9FF2846FFF7D8FF04460CB9002070BDBE
:1003F000207AFCE710B50B48007800B910BD00BFAB
:10040000EFF31080044672B6074800880749088059
:1004100000200449087004B962B6FFF785FF00BFE9
:10042000ECE7000014000020100000201200002063
:100430002DE9F04734E01C4805881C480788BD4278
:1004400000D12EE0284600F04FF80446BC4200D10F
:1004500027E0174800EBC500D0F804A0144800EBD3
:10046000C400D0F80480124810F83400104911F884
:10047000351040EA01294846FFF78EFF06466EB167
:10048000A8EB0A00142809D8C6F8048001203072AD
:10049000204600F029F80449088001E00248048061
:1004A000C9E700BFBDE8F08712000020100000205F
:1004B000A001002010B500200649088006490880E8
:1004C000064908700649086006490870FFF72CFFC6
:1004D00010BD0000100000201200002014000020B9
:1004E0001800002015000020411C88B2802800D38D
:1004F000002070472DE9F04105460E460E4804885D
:100500002046FFF7F1FF07460C480088874209D1D3
:100510000B480068401C0A4908600120094908701E
:10052000BDE8F081084800F8345000EBC400466094
:100530000148078000BFF3E71000002012000020F0
:100540001800002014000020A00100202DE9FF5F0A
:1005500007460E46384600F071F80446304600F073
:100560006DF80546601902F059FF0390601B02F018
:1005700055FF80464FF07E59BCB1B5B1002C01DD6E
:10058000012000E00020002D01DD012100E000211C
:10059000884205D14946404602F08CFF804604E07F
:1005A0004946039802F086FF0390039800F03AF85A
:1005B0008246404600F036F85146009003F046F877
:1005C00003D2404600F02EF882461549504603F00B
:1005D0003DF80ED25146124802F042FE834659467B
:1005E000039802F067FF03905946404602F062FF0D
:1005F0008046039800F030F80290404600F02CF856
:100600000190029800F072F8029800F0AFF801989B
:1006100000F079F8019800F0B6F8BDE8FF9F0000FF
:1006200000401C4610B504460021204602F00EFF93
:1006300002D284F0004010BD2046FCE7014642F2A1
:100640001070814200DD70470248814200DAFAE70B
:100650000846F8E7F0D8FFFF70B5054600212846A8
:1006600002F0F4FF09D84FF07C51284602F08AFDD1
:10067000064602F0B7FE044608E04FF07C512846DB
:1006800003F016F8064602F0ADFE04462046FFF7DA
:10069000D5FF00B270BD000010B5002000F033F8A7
:1006A000002000F023F8002000F060F8002000F0A7
:1006B0006AF800210C4801F035FC044624B90421F5
:1006C000094801F02FFC044624B90821064801F02E
:1006D00029FC044624B90C21034801F023FC0446FC
:1006E0000CB100F0C8F810BD8800002070B50446B9
:1006F0004FF4B461204600F053F805462946042023
:1007000000F00EF870BD70B504464FF4B461204699
:1007100000F046F805462946002000F001F870BDBB
:1007200030B1042804D0082802D00C2800D070472B
:100730000D4B1B68DA6A914200D991B218B90A4B85
:100740001B6859630EE0042803D1074B1B689963AB
:1007500008E0082803D1044B1B68D96302E0024B70
:100760001B68196400BFE2E78800002070B50446EA
:100770004FF4B461204600F013F8054629460820DE
:10078000FFF7CEFF70BD70B504464FF4B46120464C
:1007900000F006F8054629460C20FFF7C1FF70BDA2
:1007A0002DE9F34F85B00C460598FFF747FF054646
:1007B0001DB9204607B0BDE8F08F002D03DD4FF0D6
:1007C00001082F4602E04FF0FF386F4213480490B3
:1007D000384602F023FE1249019002F041FD0290DA
:1007E000049902F067FE03904FF07C51039802F0E9
:1007F000C9FC029002F0F6FD00F1140B08FB0B4659
:10080000A4F1FA0904F1FA0A4E4501DA4E4602E073
:10081000564500DD5646B0B2CCE700000000664306
:1008200000401C4600BFFEE710B5024800F02AF960
:1008300010BD00001801002010B5024800F022F998
:1008400010BD00005C01002030B590F8405001243C
:10085000AC40C56B6C60046863604468102C04D1C4
:100860000468A2600468E16003E00468A1600468B1
:10087000E26030BD704772B600BFFEE7014600225D
:1008800091F82100022808D00420886300BF0020CE
:1008900081F8200000BF012070470868006820F040
:1008A0000E000B6818600868006820F001000B68F3
:1008B000186091F8403001209840CB6B58600120BF
:1008C00081F8210000BF002081F8200000BF104601
:1008D000E2E7000070B50446002594F821000228E4
:1008E00003D00420A0630125C1E02068006820F047
:1008F0000E00216808602068006820F0010021686F
:1009000008605C492068884252D95A497839206881
:10091000884201D1012047E0564964392068884265
:1009200001D1102040E0534950392068884201D15C
:10093000801539E04F493C392068884201D1801444
:1009400032E04C4928392068884202D14FF4803087
:100950002AE0484914392068884202D14FF48010B7
:1009600022E044492068884201D140041CE0424909
:100970002068884201D1012016E03F4914312068E7
:10098000884201D110200FE03B492831206888427D
:1009900001D1801508E038493C312068884201D1F6
:1009A000801401E04FF480303349091F086051E0A2
:1009B000304978392068884201D1012047E02D492B
:1009C00064392068884201D1102040E0294950391B
:1009D0002068884201D1801539E026493C392068D9
:1009E000884201D1801432E02249283920688842A7
:1009F00002D14FF480302AE01E4914392068884221
:100A000002D14FF4801022E01A492068884201D1B7
:100A100040041CE018492068884201D1012016E0FA
:100A2000154914312068884201D110200FE0124985
:100A300028312068884201D1801508E00E493C31F8
:100A40002068884201D1801401E04FF480300949C8
:100A500080394860012084F8210000BF002084F81C
:100A6000200000BF606B10B12046616B88472846AC
:100A700070BD000080000240080402400146886BFF
:100A80007047000070B50446E06B05682068066892
:100A900094F84010042088402840002875D006F0C3
:100AA00004000028FAD02068006800F0200028B96F
:100AB0002068006820F0040021680860D54920689B
:100AC000884254D9D34978392068884201D104201A
:100AD00049E0D04964392068884201D1402042E091
:100AE000CC4950392068884201D100153BE0C94902
:100AF0003C392068884202D14FF4804033E0C54938
:100B000028392068884202D14FF480202BE0C14967
:100B100014392068884202D14FF4800023E0BD4997
:100B20002068884201D1C0041DE0BB49206888428A
:100B300001D1042017E0B84914312068884201D15E
:100B4000402010E0B44928312068884201D10015C6
:100B500009E0B1493C312068884202D14FF480401D
:100B600001E04FF48020AC49091F086054E0A94916
:100B700078392068884201D104204AE0A5496439C7
:100B80002068884202D1402043E04CE0A14950391E
:100B90002068884201D100153BE09E493C3920681D
:100BA000884202D14FF4804033E09A4928392068C6
:100BB000884202D14FF480202BE0964914392068F6
:100BC000884202D14FF4800023E092492068884295
:100BD00001D1C0041DE090492068884201D1042061
:100BE00017E08D4914312068884201D1402010E07F
:100BF000894928312068884201D1001509E08649D9
:100C00003C312068884202D14FF4804001E04FF42B
:100C10008020804980394860E06A002802D0204660
:100C2000E16A8847F4E094F84010022088402840A8
:100C3000002871D006F002000028FAD02068006871
:100C400000F0200040B92068006820F00A00216808
:100C50000860012084F821006E492068884254D938
:100C60006C4978392068884201D1022049E06949FD
:100C700064392068884201D1202042E0654950391A
:100C80002068884201D140153BE062493C39206828
:100C9000884202D14FF4005033E05E492839206881
:100CA000884202D14FF400302BE05A4914392068B1
:100CB000884202D14FF4001023E056492068884250
:100CC00001D180041DE054492068884201D10220EE
:100CD00017E0514914312068884201D1202010E0EA
:100CE0004D4928312068884201D1401509E04A4920
:100CF0003C312068884202D14FF4005001E04FF4AB
:100D000000304549091F086054E04249783920689D
:100D1000884202D102204AE057E03E496439206807
:100D2000884201D1202042E03A4950392068884267
:100D300001D140153BE037493C392068884202D157
:100D40004FF4005033E0334928392068884202D1FB
:100D50004FF400302BE02F4914392068884202D12B
:100D60004FF4001023E02B492068884201D1800411
:100D70001DE029492068884201D1022017E0264958
:100D800014312068884201D1202010E02249283106
:100D90002068884201D1401509E01F493C31206894
:100DA000884202D14FF4005001E04FF4003019495D
:100DB0008039486000BF002084F8200000BFA06A8E
:100DC00030B32046A16A884722E094F840100820FA
:100DD00088402840E0B106F00800C8B120680068EB
:100DE00020F00E002168086094F84010012088402F
:100DF000E16B48600120A06384F8210000BF00205F
:100E000084F8200000BF206B10B12046216B88477A
:100E100070BD00008000024008040240014600222C
:100E200009B9012070471E4B086898420BD21D4B30
:100E30000868C01A1423B0FBF3F080000864194856
:100E40000838C8630AE0164B0868C01A1423B0FBC0
:100E5000F3F08000086412480838C863022081F863
:100E600021000868026843F6F0708243D1E901036B
:100E70001843CB6818430B6918434B6918438B69B7
:100E80001843CB6918430243086802600020886356
:100E9000012081F82100002081F8200000BFC1E777
:100EA00008040240080002402DE9F04104460D46C6
:100EB00016461F464FF0000800BF94F82000012896
:100EC00002D10220BDE8F081012084F8200000BF9B
:100ED00094F8210001282CD1022084F82100002060
:100EE000A0632068006820F00100216808603B468C
:100EF000324629462046FFF7A7FCE06A30B1206859
:100F0000006840F00E00216808600BE0206800686F
:100F100020F00400216808602068006840F00A00A2
:100F2000216808602068006840F0010021680860BE
:100F300006E000BF002084F8200000BF4FF0020848
:100F40004046BFE72DE9F847024600239C467BE177
:100F50004FF0010808FA03F4D1F8008008EA040011
:100F6000A0427DD1DFF8F4A2D1F80480A8EB0A09F1
:100F7000D0453AD014DCB8F1030F50D009DCB8F1F9
:100F8000000F31D0B8F1010F1CD0B8F1020F49D1D8
:100F900020E0B8F1110F18D0B8F1120F42D11EE0C5
:100FA000B9F5881F25D006DCB9F5803F20D0B9F50A
:100FB000801F37D11AE0B9F5001F18D0B9F5041F0A
:100FC00030D117E0D1F80CC02DE0D1F80C8008F139
:100FD000040C28E0D1F80C8008F1080C23E0D1F8CB
:100FE0000C8008F10C0C1EE000BF00BF00BF00BF6A
:100FF00000BF00BFD1F80880B8F1000F02D14FF058
:10100000040C0BE0D1F80880B8F1010F03D14FF0C8
:10101000080C146102E04FF0080C546103E04FF03B
:10102000000C00E000BF00BFFF2801D8904601E09F
:1010300002F104084646FF2802D84FEA830803E07D
:10104000A3F108084FEA88084746D6F800804FF019
:101050000F0909FA07F928EA09080CFA07F900E06C
:101060007AE048EA0908C6F80080D1F8048008F060
:101070008058B8F1805F6FD100BFDFF8E481D8F805
:10108000188048F00108DFF8D891C9F81880C846E0
:10109000D8F8188008F00108CDF8008000BF00BF24
:1010A0004FEAB9384FEA930958F829504FEA837844
:1010B0004FEA18794FF00F0808FA09F825EA0805F1
:1010C000DFF8A081424502D14FF0000824E0DFF8AC
:1010D0009881424502D14FF001081DE0DFF88C8174
:1010E000424502D14FF0020816E0DFF88481424504
:1010F00002D14FF003080FE0DFF87881424502D1BA
:101100004FF0040808E0DFF87081424502D14FF04B
:10111000050801E04FF006084FEA83794FEA197994
:1011200008FA09F848EA0505DFF850814FEA930903
:1011300048F82950D1F8048008F48018B8F5801FC9
:101140000BD1DFF83C81D8F8008048EA0008DFF8CE
:101150003091C9F800800AE075E0DFF82481D8F802
:10116000008028EA0008DFF81891C9F80080D1F85B
:10117000048008F40018B8F5001F0ED1DFF80081D4
:1011800008F10408D8F8008048EA0008DFF8F09079
:1011900009F10409C9F800800DE0DFF8E48008F1E6
:1011A0000408D8F8008028EA0008DFF8D49009F194
:1011B0000409C9F80080D1F8048008F40038B8F5B3
:1011C000003F0ED1DFF8B880A8F10408D8F80080FD
:1011D00048EA0008DFF8A890A9F10409C9F80080DE
:1011E0000DE0DFF89C80A8F10408D8F8008028EA18
:1011F0000008DFF88C90A9F10409C9F80080D1F843
:10120000048008F48038B8F5803F0ED1DFF8708094
:10121000A8F10808D8F8008048EA0008DFF86090D4
:10122000A9F10809C9F800800DE0DFF85480A8F1A1
:101230000808D8F8008028EA0008DFF84490A9F1EF
:101240000809C9F800805B1CD1F8008028FA03F86F
:10125000B8F1000F7FF47CAEBDE8F88700001110F4
:101260000010024000080140000C01400010014045
:101270000014014000180140001C0140080001401A
:10128000080401400AB1016101E00B0403617047E9
:101290000148006870470000000000200348006813
:1012A000034909780844014908607047000000209C
:1012B0000800002010B50848006840F010000649FA
:1012C0000860032000F0A8F80F2000F007F800F0F5
:1012D0002BF8002010BD00000020024070B504462D
:1012E0000E4800784FF47A71B1FBF0F00C490968B0
:1012F000B1FBF0F5284600F0F9FB08B1012070BD04
:10130000102C07D200222146501E00F047F8054855
:10131000046001E00120F2E70020F0E7080000206F
:101320000C0000200400002008B500BF11488069AF
:1013300040F001000F4988610846806900F0010013
:10134000009000BF00BF00BF0846C06940F0805059
:10135000C8610846C06900F08050009000BF00BF1F
:1013600000BF0549486820F0E06040F00070486028
:1013700000BF08BD001002400000014001460846C1
:10138000002809DB00F01F0301229A4043099B005B
:1013900003F1E023C3F8002100BF70472DE9F05F9F
:1013A00080460D461646002701F08CFE074639465A
:1013B0002A46334601F00700C0F1070ABAF1040FCC
:1013C00002D94FF0040A01E0C0F1070AD14600F14A
:1013D000040ABAF1070F02D24FF0000A01E0A0F1AF
:1013E000030AD4464FF0010A0AFA09FAAAF1010ADF
:1013F0000AEA020A0AFA0CFA4FF0010B0BFA0CFB8C
:10140000ABF1010B0BEA030B4AEA0B042146404601
:1014100001F060FEBDE8F09F00BF00F00702064B40
:1014200019684FF6FF031940044B0B4343EA0221AE
:10143000014B196000BF70470CED00E00000FA0599
:1014400070B504460D460CB9012070BD5A480068BD
:1014500000F00700A8420ED25748006820F00700AD
:101460002843554908600846006800F00700A84274
:1014700001D00120E9E7207800F0020002281DD108
:10148000207800F00400042805D14C48406840F45E
:10149000E0604A494860207800F00800082805D13B
:1014A0004648406840F460504449486043484068BA
:1014B00020F0F000A168084340494860207800F01F
:1014C000010078B36068012806D13C48006800F448
:1014D000003090B90120B8E76068022806D137488B
:1014E000006800F0007040B90120AEE733480068A2
:1014F00000F0020008B90120A7E73048406820F05A
:101500000300616808432D494860FFF7C1FE0646A5
:1015100009E0FFF7BDFE801B41F28831884202D905
:10152000032092E707E02548406800F00C0061685E
:10153000B0EB810FEDD12048006800F00700A84211
:101540000ED91D48006820F0070028431A4908609A
:101550000846006800F00700A84201D0012074E7A7
:10156000207800F00400042807D11448406820F4D3
:10157000E060E168084311494860207800F0080005
:10158000082808D10D48406820F46050216940EADD
:10159000C1000A49486000F03FF808494968C1F3B2
:1015A0000311074A515CC8400649086006480068B4
:1015B000FFF794FE002048E70020024000100240A0
:1015C000AC3700080C00002004000020014800682F
:1015D000704700000C00002000B5FFF7F7FF04493A
:1015E0004968C1F30221034A515CC84000BD0000B4
:1015F00000100240BC37000800B5FFF7E7FF0449C0
:101600004968C1F3C221034A515CC84000BD0000D3
:1016100000100240BC37000870B5002100220024F1
:1016200000230020134D696801F00C05F5B1042D6D
:1016300002D0082D19D101E00F4819E00F4DC1F378
:101640008346AB5D01F4803555B10A4D6D68C5F335
:1016500040450B4E725D084D5D43B5FBF2F402E070
:10166000084D03FB05F4204602E000BF024800BF1E
:1016700000BF70BD0010024000127A009A370008C7
:10168000AA37000800093D00F8B504460CB901204E
:10169000F8BD207800F00100002878D0F8484068B4
:1016A00000F00C0004280CD0F548406800F00C0055
:1016B000082811D1F248406800F48030B0F5803F2E
:1016C0000AD1EF48006800F4003000285FD060685D
:1016D00000285CD10120DBE700BF6068B0F5803FE7
:1016E00006D1E748006840F48030E549086028E00A
:1016F000606858B9E248006820F48030E04908602A
:101700000846006820F4802008601AE06068B0F5A0
:10171000A02F0BD1DA48006840F48020D849086037
:101720000846006840F4803008600AE0D448006849
:1017300020F48030D24908600846006820F48020F8
:10174000086000BF606888B1FFF7A2FD054606E0AB
:10175000FFF79EFD401B642801D9032098E7C84885
:10176000006800F400300028F2D010E0FFF790FD90
:10177000054606E0FFF78CFD401B642801D90320D5
:1017800086E7BF48006800F400300028F2D12078D6
:1017900000F00200022857D1B948406800F00C0060
:1017A00050B1B748406800F00C00082818D1B44880
:1017B000406800F4803098B9B148006800F0020039
:1017C00020B12069012801D0012061E7AC48006800
:1017D00020F0F800616940EAC100A949086033E0DF
:1017E0002069E8B10120A7490860FFF751FD0546CF
:1017F00006E0FFF74DFD401B022801D9032047E713
:101800009F48006800F002000028F2D09C48006861
:1018100020F0F800616940EAC1009949086013E0CE
:10182000002098490860FFF733FD054606E0FFF702
:101830002FFD401B022801D9032029E790480068AA
:1018400000F002000028F2D1207800F008000828FB
:101850002DD1A069B8B101208B490860FFF718FDB0
:10186000054606E0FFF714FD401B022801D90320BE
:101870000EE78348406A00F002000028F2D0012001
:1018800000F0F2FF13E000207F490860FFF700FD41
:10189000054606E0FFF7FCFC401B022801D90320A7
:1018A000F6E67748406A00F002000028F2D120787E
:1018B00000F00400042873D100277148C06900F0CB
:1018C000805070B900BF6E48C06940F080506C49CC
:1018D000C8610846C06900F08050009000BF00BF9A
:1018E00001276A48006800F48070B0B96748006852
:1018F00040F4807065490860FFF7CAFC054606E0C1
:10190000FFF7C6FC401B642801D90320C0E65F48EE
:10191000006800F480700028F2D000BFE068012861
:1019200006D15748006A40F001005549086227E097
:10193000E06858B95248006A20F001005049086236
:101940000846006A20F00400086219E0E0680528F3
:101950000BD14B48006A40F0040049490862084630
:10196000006A40F0010008620AE04548006A20F081
:101970000100434908620846006A20F0040008623A
:1019800000BFE068A0B1FFF783FC054609E0FFF760
:101990007FFC401B41F28831884202D9032077E660
:1019A00022E03748006A00F002000028EFD012E081
:1019B000FFF76EFC054608E0FFF76AFC401B41F2AA
:1019C0008831884201D9032062E62D48006A00F080
:1019D00002000028F0D1012F05D12948C06920F06C
:1019E00080502749C86100BFE069C8B324484068F7
:1019F00000F00C00082860D0E069022848D10020DF
:101A000020490866FFF744FC054606E0FFF740FC66
:101A1000401B022801D903203AE61948006800F06B
:101A200000700028F2D1206AB0F5803F07D1144839
:101A3000406820F40030A168084311494860D4E9A7
:101A4000080108430E49496821F4741108430C4900
:101A5000486001200B490866FFF71AFC054607E0BD
:101A60003DE0FFF715FC401B022801D903200FE6DB
:101A70000348006800F000700028F2D02FE000005A
:101A800000100240000042428004424200700040C8
:101A9000002014490866FFF7FBFB054606E0FFF748
:101AA000F7FB401B022801D90320F1E50E4800682E
:101AB00000F000700028F2D111E0E069012800D1A7
:101AC000E6E50948466806F48031206A814204D17F
:101AD00006F47011606A814201D00120D8E500202F
:101AE000D6E50000000042420010024070B50446F6
:101AF0002546681EB0F1807F01D301200FE0681EEB
:101B00004FF0E02148610F214FF0FF3001F0E2FA81
:101B100000204FF0E021886107200861002070BD9F
:101B200030B502460B4600BF92F83C00012801D1B7
:101B3000022030BD012082F83C0000BF022082F864
:101B40003D00106844681068816824F070041868CB
:101B5000044310684460144D1068A84213D0134D1C
:101B60001068A8420FD01068B0F1804F0BD0104D14
:101B70001068A84207D00F4D1068A84203D00E4D40
:101B80001068A84205D121F080015868014310680F
:101B90008160012082F83D0000BF002082F83C00F7
:101BA00000BF00BFC5E70000002C01400034014029
:101BB0000004004000080040000C004010B504463E
:101BC0000CB9012010BD94F83D0028B9002084F81C
:101BD0003C00204600F026F8022084F83D00211D3C
:101BE000206800F0DBFE012084F8460000BF84F886
:101BF0003E0001213F200155402001554120015563
:101C000000BF00BF012084F842004320015544205A
:101C100001554520015500BF012084F83D000020FA
:101C2000D0E7000008B5094A016891420DD100BF14
:101C30000749C96941F00401054AD1611146C969E2
:101C400001F00401009100BF00BF08BD0008004082
:101C5000001002402DE9F04104460D46002700BF68
:101C600094F83C00012802D10220BDE8F081012057
:101C700084F83C0000BF022084F83D00206886689C
:101C800026F0770626F47F4620688660286850286C
:101C900033D00CDC202850D004DC00284BD0102896
:101CA00051D149E0302849D040284CD139E0602852
:101CB0002DD0702807D0B0F5805F03D0B0F5005F5D
:101CC00041D10DE041E0D5E902136A68206800F0D7
:101CD000CCFE2068866846F077062068866034E08F
:101CE000D5E902136A68206800F0BFFE20688068AA
:101CF00040F480402168886027E0EA6869682068CD
:101D000000F0A4FF5021206800F0BAFE1DE0EA6850
:101D10006968206800F0ADFF6021206800F0B0FE27
:101D200013E0EA686968206800F090FF40212068AD
:101D300000F0A6FE09E000BF00BF00BF29682068D0
:101D400000F09EFE01E0012700BF00BF012084F8E3
:101D50003D0000BF002084F83C0000BF384684E707
:101D600010B586B0044600200290039004900590C0
:101D70000E492068884217D100BF0D48806940F0A5
:101D800008000B4988610846806900F0080001904E
:101D900000BF00BF4FF470700290022003900590C6
:101DA00002A90448FFF7CEF806B010BD00080040B5
:101DB00000100240000C01402DE9F04104460D46A0
:101DC0001646002700BF94F83C00012802D10220EB
:101DD000BDE8F081012084F83C0000BF36B1042E3C
:101DE0001BD0082E31D00C2E5ED145E0294620684C
:101DF00000F050FE2068806940F00800216888618A
:101E00002068806920F0040021688861206880696A
:101E1000296908432168886148E02946206800F064
:101E200071FE2068806940F4006021688861206844
:101E3000806920F480602168886120688069296950
:101E400040EA01202168886130E02946206800F0DE
:101E500097FE2068C06940F008002168C8612068CA
:101E6000C06920F004002168C8612068C069296940
:101E700008432168C86119E02946206800F0BCFECB
:101E80002068C06940F400602168C8612068C069AA
:101E900020F480602168C8612068C069296940EA2F
:101EA00001202168C86101E0012700BF00BF00BF19
:101EB000002084F83C0000BF384689E710B504468E
:101EC0000CB9012010BD94F83D0028B9002084F819
:101ED0003C00204600F025F8022084F83D00211D3A
:101EE000206800F05BFD012084F8460000BF84F804
:101EF0003E0001213F200155402001554120015560
:101F000000BF00BF012084F8420043200155442057
:101F100001554520015500BF012084F83D000020F7
:101F2000D0E7704770B504460D4615B994F83E00E9
:101F30000BE0042D02D13F20005D06E0082D02D108
:101F40004020005D01E04120005D012801D001201A
:101F500070BD1DB9022084F83E000EE0042D03D1AF
:101F600002213F20015508E0082D03D10221402025
:101F7000015502E002214120015501222946206835
:101F800000F062FD1F492068884203D01E49206886
:101F9000884201D1012000E0002028B12068406C77
:101FA00040F400402168486416492068884213D0F4
:101FB0001549206888420FD02068B0F1804F0BD0BF
:101FC00012492068884207D011492068884203D00E
:101FD0001049206888420CD12068806800F007060C
:101FE000062E0CD02068006840F0010021680860CF
:101FF00005E02068006840F00100216808600020CA
:10200000A6E70000002C014000340140000400401D
:1020100000080040000C0040704710B5044600BFA7
:1020200000BF21680C3151E8001F21F49070216835
:102030000C3141E80002002AF3D100BF00BF00BF0D
:102040002168143151E8001F21F00100216814318A
:1020500041E80002002AF3D100BF206B01280ED115
:1020600000BF00BF21680C3151E8001F21F01000B3
:1020700021680C3141E80002002AF3D100BF20683A
:10208000406900F0400000B300BF00BF2168143178
:1020900051E8001F21F040002168143141E800029E
:1020A000002AF3D100BFE06B78B10020E16B4863F8
:1020B000E06BFEF7E3FB40B1E06BFEF7DFFC2028AE
:1020C00003D110206064032010BD0020E085202093
:1020D00084F842000020206300BFF5E738B50446CD
:1020E00014B10E48844200D038BD01200C4908705C
:1020F000606C00F0080050B100BF00200090206824
:102100000068009020684068009000BF00BF012276
:102110000449204600F03AFA00BFE5E7D00000206D
:1021200014000020150000202DE9F84F0446206817
:1021300005682068C668206847694FF00009CA46EC
:1021400005F00F09B9F1000F0AD105F0200038B1F0
:1021500006F0200020B1204600F05DFEBDE8F88FBB
:10216000B9F1000F7BD007F0010018B906F49070A8
:10217000002874D005F0010030B106F4807018B169
:10218000606C40F00100606405F0040030B107F0BD
:10219000010018B1606C40F00200606405F00200BC
:1021A00030B107F0010018B1606C40F004006064C9
:1021B00005F0080048B106F0200010B907F0010052
:1021C00018B1606C40F008006064606C002845D075
:1021D00005F0200028B106F0200010B1204600F0E4
:1021E0001AFE20684069C0F3801A606C00F0080095
:1021F00010B9BAF1000F2CD0204600F0B3FD2068D2
:10220000406900F0400000B300BF00BF21681431F6
:1022100051E8001F21F040002168143141E800021C
:10222000002AF3D100BFE06B50B17748E16B4863FF
:10223000E06BFEF74FFB88B1E06B416B88470DE028
:102240002046FFF74BFF09E009E02046FFF746FF75
:1022500004E02046FFF742FF002060647EE7206B29
:10226000012877D105F01000002873D006F0100087
:102270000028FAD000BF002000902068006800907D
:1022800020684068009000BF00BF2068406900F0EF
:10229000400000285FD0E06B006840681FFA80F8BB
:1022A000B8F1000F55D0A08D404552DDA4F82E8026
:1022B000E06B8069202843D000BF00BF21680C314B
:1022C00051E8001F21F4807021680C3141E80002C0
:1022D000002AF3D100BF00BF00BF2168143151E8CC
:1022E000001F21F001002168143141E80002002A9A
:1022F000F3D100BF00BF00BF2168143151E8001FB7
:1023000021F040002168143141E80002002AF3D195
:1023100000BF202084F842000020206300BF00BFDF
:1023200021680C3151E8001F21F0100021680C31A8
:1023300041E80002002AF3D100BFE06BFEF79EFAED
:1023400002206063A08DE28D801A81B22046FFF7E3
:1023500063FE03E742E0A08DE18D401A1FFA80F88A
:10236000E08DD0B3B8F1000F37D000BF00BF2168B7
:102370000C3151E8001F21F4907021680C3141E8C4
:102380000002002AF3D100BF00BF00BF2168143152
:1023900051E8001F21F001002168143141E80002DA
:1023A000002AF3D100BF202084F8420000202063DF
:1023B00000BF00BF21680C3151E8001F21F0100060
:1023C00021680C3141E80002002AF3D100BF02204D
:1023D000606341462046FFF71FFEBFE605F0800020
:1023E00030B106F0800018B1204600F031FEB5E6AD
:1023F00005F0400030B106F0400018B1204600F072
:10240000E7FCABE600BFA9E69B2C000810B504462C
:102410000CB9012010BDA06900B100E000BF94F824
:10242000410028B9002084F84000204600F02AF836
:10243000242084F841002068C06820F400502168FE
:10244000C860204600F066FD2068006920F49040D6
:10245000216808612068406920F02A0021684861ED
:102460002068C06840F400502168C86000206064A3
:10247000202084F8410084F842000020606300BFFF
:10248000C8E7000010B586B0044600200290039013
:102490000490059037492068884269D100BF3648CA
:1024A000806940F48040344988610846806900F4BE
:1024B0008040019000BF00BF00BF0846806940F027
:1024C000040088610846806900F00400019000BFA4
:1024D00000BF48150290022003900320059002A936
:1024E0002648FEF72FFD4FF48060029000200390F5
:1024F000049002A92148FEF725FD214821490860E2
:102500001020486000211F4881608021C1600021A7
:10251000016141618161C161FEF780FC08B1FEF794
:10252000AAF900BF1748A063446200BF14481430E2
:10253000154908600020486000211348816080210F
:10254000C1600021016141618161C161FEF766FCEA
:1025500008B1FEF790F900BF0B48E063446200BF8A
:10256000002211462520FEF719FF2520FEF706FF61
:1025700006B010BD003801400010024000080140C4
:1025800044000240180100205C01002070B50446A0
:102590000D46164694F8420020280BD105B10EB91D
:1025A000012070BD0020206332462946204600F0FD
:1025B0002FFDF6E70220F4E770B5044614B1094890
:1025C000844200D070BDFEF763FE054629460648EA
:1025D0000078FDF78FFF012203492046FFF7D6FF61
:1025E00000BFEFE7D000002015000020F7B504463B
:1025F000154694F84100202836D1019800B10DB954
:102600000120FEBD01982062A584E584002060645D
:10261000212084F841001548A16B88621448A16B01
:10262000C8621448A16B08630020A16B486301AE27
:1026300023681A1D31682B46A06BFEF735FC6FF03E
:1026400040002168086000BF00BF2168143151E8D4
:10265000001F41F080002168143141E80002002A87
:10266000F3D100BF0020CCE70220CAE7FF2C00080E
:10267000572D0008AF2C00087047704700BFFEE7D9
:1026800008B500BF0E48406940F001000C494861A0
:102690000846406900F00100009000BF00BF002222
:1026A00011460E20FEF77AFE0E20FEF767FE00228E
:1026B00011460F20FEF772FE0F20FEF75FFE08BDE9
:1026C0000010024000B585B00020019002900390F8
:1026D000049000BF1B48806940F0040019498861DC
:1026E0000846806900F00400009000BF00BF00BFF2
:1026F0000846806940F0080088610846806900F05B
:102700000800009000BF00BF0022C0210E48FEF765
:10271000B9FDC0200190012002900020039002200A
:10272000049001A90848FEF70DFC4FF48050019079
:1027300000200290039001A90348FEF703FC05B0B6
:1027400000BD0000001002400008014000B58DB03F
:10275000002009900A900B900C90079008901C2183
:102760006846FDF753FD2D482D4908604820486014
:1027700000212B48816044F61F61C1600021016186
:102780008161FFF71BFA08B1FEF775F84FF480502E
:10279000099009A92248FFF75DFA08B1FEF76BF826
:1027A0001F48FFF78BFB08B1FEF765F80020079084
:1027B000089007A91A48FFF7B3F908B1FEF75BF8CC
:1027C00060200090002001900220029000200490E0
:1027D000002269461248FFF7EFFA08B1FEF74BF8FE
:1027E000042269460E48FFF7E7FA08B1FEF743F8FE
:1027F000082269460A48FFF7DFFA08B1FEF73BF8FE
:102800000C2269460648FFF7D7FA08B1FEF733F8FD
:102810000348FFF7A5FA0DB000BD00000008004016
:102820008800002010B50B480B4908604FF4165083
:102830004860002108488160C16001610C2141614C
:1028400000218161C161FFF7E1FD08B1FEF713F8D6
:1028500010BD000000380140D000002000BFFEE79E
:1028600000BFFEE77047000008B508490968C908BD
:102870004FF47A72B1FBF2F14143009100BF00BF07
:1028800000994A1E00920029F9D108BD0C000020D1
:102890007047000008B52148FFF7BFFBFDF70AFEAF
:1028A0004FF4FA70FDF716FD002240211C48FEF798
:1028B000E9FC012280211A48FEF7E4FC4FF4FA708B
:1028C000FDF708FD062217491448FFF78FFE08B1EF
:1028D000FDF7D1FF4FF4FA70FDF7FCFC0022402118
:1028E0000F48FEF7CFFC002280210D48FEF7CAFCFE
:1028F00000BF002000900948006800680090074869
:1029000000684068009000BF00BF012206490348EC
:10291000FFF73CFE08B1FDF7AEFF08BDD000002078
:10292000000801407C0000201500002010B5FEF7D3
:10293000B5FC10BD00B58FB0282105A8FDF766FCD9
:1029400014216846FDF762FC012005900004069002
:10295000002007900120099002200C90C1030D91E6
:102960004FF4E0110E9105A8FEF78EFE08B1FDF7B9
:1029700082FF0F20009002200190002002904FF46F
:10298000806003900020049002216846FEF758FD05
:1029900008B1FDF770FF0FB000BD704710B50268B9
:1029A000244B98420ED0244B98420BD0B0F1804F6C
:1029B00008D0224B984205D0214B984202D0214B9F
:1029C000984203D122F070024B681A43194B984287
:1029D0000ED0194B98420BD0B0F1804F08D0174B56
:1029E000984205D0164B984202D0164B984203D11C
:1029F00022F44072CB681A4322F080034C6943EA08
:102A0000040202608B68C3620B688362094B9842C0
:102A100002D0094B984201D10B6903630123436142
:102A2000036903F001031BB1036923F00103036190
:102A300010BD0000002C01400034014000040040A3
:102A400000080040000C004030B501F01F050124D3
:102A500004FA05F3046A9C430462046A01F01F054A
:102A600002FA05F52C43046230BD30B50C4681688E
:102A700021F47F4142EA032525432943816030BD8B
:102A80000A46816821F0700142F007031943816012
:102A90007047000030B5026A056A25F0010505623D
:102AA0004368846924F0700424F003040D682C4307
:102AB00022F002028D682A43104DA84200D103E0A3
:102AC0000F4DA84206D100BF22F00802CD682A436C
:102AD00022F00402094DA84202D0094DA84207D1B4
:102AE00023F4807323F400734D692B438D692B43CA
:102AF000436084614D684563026230BD002C014033
:102B00000034014030B5026A056A25F010050562FF
:102B10004368846924F4E04424F440740D6844EA72
:102B2000052422F020028D6842EA0512124DA842C7
:102B300000D103E0114DA84207D100BF22F080026E
:102B4000CD6842EA051222F040020B4DA84202D0A5
:102B50000A4DA84209D123F4806323F400634D6930
:102B600043EA85038D6943EA8503436084614D68C8
:102B70008563026230BD0000002C0140003401403A
:102B800030B5026A056A25F4807505624368C46938
:102B900024F0700424F003040D682C4322F4007226
:102BA0008D6842EA0522124DA84200D103E0114D82
:102BB000A84207D100BF22F40062CD6842EA052294
:102BC00022F480620A4DA84202D00A4DA84209D1DF
:102BD00023F4805323F400534D6943EA05138D69B0
:102BE00043EA05134360C4614D68C563026230BDAA
:102BF000002C01400034014030B5036A056A25F419
:102C0000805505624468C26922F4E04222F44072B1
:102C10000D6842EA052223F400538D6843EA053328
:102C2000084DA84202D0084DA84204D124F48044A3
:102C30004D6944EA85144460C2614D6805640362CD
:102C400030BD0000002C01400034014030B50B467F
:102C50001446026A056A25F001050562816921F0C2
:102C6000F00141EA041122F00A021A438161026272
:102C700030BD30B50B461446026A056A25F01005D2
:102C80000562816921F4704141EA043122F0A00219
:102C900042EA03128161026230BD70B505466C6A7A
:102CA0000020E085E0842046FFF718FA70BD70B57B
:102CB00006460025746A20684069C0F3C01594F880
:102CC0004100212805D125B10020E084204600F0F4
:102CD0008FF820684069C0F3801594F842002228DC
:102CE00005D125B10020E085204600F03BF8606C5E
:102CF00040F0100060642046FFF7F0F970BD70B539
:102D000005466C6A2868006800F02000F8B90020C9
:102D1000E08400BF00BF2168143151E8001F21F09A
:102D200080002168143141E80002002AF3D100BF7D
:102D300000BF00BF21680C3151E8001F41F0400086
:102D400021680C3141E80002002AF3D102E020465C
:102D5000FFF792FC70BD70B50446656A2846FFF720
:102D60008CFC70BD00BF00BF02680C3252E8002F1F
:102D700022F4907102680C3242E80013002BF3D168
:102D800000BF00BF00BF0268143252E8002F22F0DB
:102D900001010268143242E80013002BF3D100BF96
:102DA000016B01290ED100BF00BF02680C3252E84E
:102DB000002F22F0100102680C3242E80013002BB1
:102DC000F3D100BF202180F8421000210163704739
:102DD00010B504462068C06820F040002168C86033
:102DE000202084F841002046FFF746FC002010BD5B
:102DF00000BF00BF02680C3252E8002F22F0C00171
:102E000002680C3242E80013002BF3D100BF2021EE
:102E100080F841107047F8B5044694F84200222823
:102E200075D1A068B0F5805F0CD1206950B900253C
:102E3000A66A20684068C0F308003080A06A801C41
:102E4000A06215E0A56A0026A068B0F5805F03D0F7
:102E5000A06828B9206918B920684068287004E083
:102E60002068406800F07F002870A06A401CA062C3
:102E7000E08D401E80B2E085002846D12068C06801
:102E800020F020002168C8602068C06820F48070AD
:102E90002168C8602068406920F00100216848610D
:102EA000202084F8420000206063206B012826D196
:102EB0000020206300BF00BF21680C3151E8001FD3
:102EC00021F0100021680C3141E80002002AF3D102
:102ED00000BF2068006800F0100010280AD100BF71
:102EE00000200090206800680090206840680090F2
:102EF00000BF00BFA18D2046FFF78EF802E02046FC
:102F0000FFF75AFB0020F8BD01E00020FBE702209C
:102F1000F9E7000070B504462168096921F44051C1
:102F2000E2681143226811612269A1681143626954
:102F300041EA02052168C96841F20C6291432943C4
:102F40002268D1602168496921F44071A269114366
:102F5000226851612D4A2168914202D1FEF74CFB53
:102F600001E0FEF739FB00EBC00101EB00116268E4
:102F70009200B1FBF2F100EBC00202EB00126368B9
:102F80009B00B2FBF3F26423B2FBF3F202EBC20349
:102F900003EB0212A1EB8201322202EB0111642247
:102FA000B1FBF2F101F0F00100EBC00202EB001204
:102FB00063689B00B2FBF3F26423B2FBF3F201EB14
:102FC000021200EBC00101EB001163689B00B1FB32
:102FD000F3F100EBC00303EB00136668B600B3FB2C
:102FE000F6F36426B3FBF6F303EBC30606EB031319
:102FF000A1EB8301322303EB01116423B1FBF3F155
:1030000001F00F0111442268916070BD0038014049
:1030100010B5034699629A85DA850020586422200B
:1030200083F84200186928B11868C06840F48070BD
:103030001C68E0601868406940F001001C6860612D
:103040001868C06840F020001C68E060002010BDD7
:10305000014691F84100212828D18868B0F5805FA9
:103060000BD1086948B90A6A1088C0F308000B68D8
:103070005860086A801C086205E00B6A581C0862E8
:1030800018780B685860C88C401E80B2C88458B944
:103090000868C06820F080000B68D8600868C068C5
:1030A00040F040000B68D860002070470220FCE729
:1030B00010B50248FFF738F810BD0000D00000201E
:1030C00000BFFEE702480068C0F30220704700001E
:1030D0000CED00E010B5002804DB0A07130E054ACA
:1030E000135406E00A07140E034A00F00F031B1FD7
:1030F000D45410BD00E400E018ED00E0FEF7DAF86B
:10310000FFF718FCFFF7DEFAFFF7BAFAFFF78AFBC2
:10311000FFF71CFBFDF7C0FAFFF7BCFB2DE045F203
:103120004130FDF751F928B1002140F6B830FDF7E4
:103130000DFA22E045F64D00FDF746F920B10021D9
:103140000E48FDF703FA18E044F65070FDF73CF91D
:1031500020B10B490020FDF7F9F90EE044F64C30A0
:10316000FDF732F928B141F64C510020FDF7EEF998
:1031700003E000210846FDF7E9F9D0E748F4FFFF36
:10318000B4E2FFFF90EA010F48BF81F0004100F177
:103190009682421A3CBF801A89184FEAD0524FF0EB
:1031A0007F4C1CEA410FA2EBD15318BF9CEA026F7F
:1031B00000F03B804FF0004C4CEA00204CEA01212B
:1031C00021FA03FC10EB0C0C1ED202F1FF325FEA75
:1031D0001C2040EBC25038BF70471CF07F0F4FEAF5
:1031E000400C18BFBCF17F4F38BF7047C3F12003BC
:1031F000994008BF20F00100BCF17F4F38BF7047F5
:10320000A0F1C04000F01DBA4FEA3C00000A40EBBC
:10321000C25028BF1CF0FF0F4FEA400CE6D018BF89
:10322000BCF17F4F38BF7047EAE79CEA026F05D0D8
:1032300010EA5C0F08BF00F00040704710B500F0C6
:10324000BAF900BF64FBBE3E401058BFC0F1404019
:10325000491058BFC1F140418142EFF300807047EF
:103260004FF47F0C1CEAD0121EBF1CEAD11392EA65
:103270000C0F93EA0C0F00F0858090EA010F48BF15
:1032800042F4807240F4000C41F400002CF07F41C5
:1032900020F07F4000B58142A2EB03020FF2081C30
:1032A000ACEB504EC0F100009EF800E04FEA4E0E2D
:1032B00000FB0EFC38BF49004FEA2C1C02F5FA0255
:1032C0000CFB0EF34FEACE1E4FEA112C4FEAC12140
:1032D0000EEB635E42EB22420EFB0CFC4FEA1C53EA
:1032E00000FB03114FEA112C4FEA01310EFB0CFCDD
:1032F0004FEADC4C00FB0C11C14228BF09184CEB13
:1033000003335DF804EB10EB410143EBC250B2F51F
:103310007C0F38BF704729D512F0F00F1CBF00F1A9
:10332000C04000F00040704700818283848586871A
:1033300088898B8C8D8E8F919293959697999A9C74
:103340009D9FA0A2A3A5A7A8AAACAEB0B2B3B5B7E3
:10335000B9BCBEC0C2C5C7C9CCCED1D4D7D9DCDFB9
:10336000E2E6E9ECF0F3F7FAFE0000004FEA400C69
:103370000CF1807CBCF17E4F28BF7047B0F1C0409B
:1033800000F05FB990EA010F0CEAD11348BF42F494
:103390008072624538BF634507D213F47F0F16D0A1
:1033A00080EA010000F00040704710B500F003F91A
:1033B000097EFC3E00F005B880EA010000F0004004
:1033C000704780EA010000F0004000F03AB912F4C2
:1033D0007F0F04BF0248704780EA010000F031B956
:1033E0000000C07F41000B0ED3F19E0208D950F4BB
:1033F00000034FEA032323FA02F048BF404270471C
:1034000010B500F0D8F800BF499224800020704722
:103410006FF0004282EA20007047000010F0004187
:1034200048BF4042B0FA80F310FA03F2C3F19D03A3
:103430000BD051EAC35101EB1220530638BF70473D
:1034400000F1010008BF20F00100704750EA010CB4
:1034500000F113801CF5000F58BFBCF5000F01D41C
:103460008842704707D710F5000F58BF11F5000FBD
:1034700015D488427047894270471CF5000F04D567
:10348000BCF5000FF7D5814270474FF0807C1CEBF4
:10349000400F38BF1CEB410F01D28142704710B57D
:1034A00000F089F8922449004FF000504FF080510D
:1034B000FFF7CABE4FF47F0C1CEAD0121EBF1CEAF5
:1034C000D11392EA0C0F93EA0C0F00F0478090EAB8
:1034D000010F48BF42F480724FF0004C4CEA0020CC
:1034E0004CEA012102EB0302A0FB0113A2F500024A
:1034F000002918BF43F001035B0028BF4FEA3303E4
:1035000042EB22425FEA132C4CEBC2502EBFBCEBC5
:10351000436FB2F57C0F70474FEA036CBCF1004F6C
:1035200008BF20F00100B2F57C0F38BF70470BD503
:1035300082F0FF0212F5803FC8BF704700F1C04023
:10354000D8BF00F00040704700F5000C5FEA4C0C5B
:1035500048BF7047B0F1C04000F073B890EA010F67
:103560000CEAD11348BF42F48072624538BF63450C
:1035700004D280EA010000F00040704710B500F06E
:103580001AF800BF8900013E00F007B800F009B842
:103590005FEA410C5FEA1C6C08D080EA010000F091
:1035A00050B85FEA400C5FEA1C6CF6D14FF0004067
:1035B000A0F5800070470EF1020E2EF0030E5EF8AB
:1035C000044B244204D44FEA4102B2F17F4F11D898
:1035D0004FEA4003B3F17F4F0CD80ED14FEAD07CB5
:1035E000B2F17F4F0CEB4C0C0CF1020C08BF4CEB12
:1035F000D17C04E04FF0080C01E04FEAD17C0CEBE9
:103600004C0324FA03F404F00704B4F1040C06D2CA
:103610000EEB840CBDE810404CF0010C6047DFE875
:103620000CF0070802024FF00040A0F5800010BD2A
:103630000846420018BFD2F1807288BF00F00040F7
:1036400010BDFF2141EAD050C005704751EA000C7F
:1036500000F113801CF5000F58BFBCF5000F01D41A
:103660008142704707D711F5000F58BF10F5000FC2
:1036700015D481427047894270471CF5000F04D56C
:10368000BCF5000FF7D5884270474FF0807C1CEBEB
:10369000410F38BF1CEB400F01D28842704780EACF
:1036A000010081EA000180EA0100FFF7F8BE000096
:1036B00090EA010F48BF81F000413FF56AAD421A20
:1036C00004D882F00042A0EB020011444FEAD0522D
:1036D0004FF07F4C1CEA410FA2EBD15318BF9CEA7C
:1036E000026F4AD04FF0004C4CEA00204CEA012116
:1036F00021FA03FCB0EB0C0C0FD412F0FE0F36D005
:103700005FEA4C001DD5001240EBC25038BF704735
:103710001CF03F0F18BF70470BE0A2F101025FEAF7
:103720001C2040EBC25038BF70471CF07F0F18BF01
:103730007047C3F12003994014BF401E20F00100E0
:10374000704780084FEA122308BF7047B0FA80FC28
:10375000A2EB0C02CCF1280C60FA0CF093EA122FC9
:1037600004BF00EBC25070474FEAC3707047130AA2
:103770005FEADC1008BF7047F6E79CEA026F04D0EE
:1037800010EA5C0F08BF0020704710B5FFF713FF69
:1037900040DFF63E81F00040704702030405060753
:1037A00008090A0B0C0D0E0F10100102000000009A
:1037B00000000000010203040607080900000000E1
:1037C00001020304E4370008000000208800000024
:1037D0006C0100086C38000888000020780B00009D
:1037E0008801000800000000100000000100000037
:1037F00000127A000000000000000000000000003D
:103800005157000000000000000000005A5800005E
:103810000000000000000000415300000000000014
:10382000000000004D5800000000000000000000F3
:10383000504F000000000000000000004C4B000052
:1038400000000000000000004243000000000000F3
:1038500000000000444900000000000000000000DB
:0C386000C0FFFF193E00C1C1C1AABBCCD3
:0400000508000131BD
:00000001FF
