:020000040800F2
:1000000080060020CD010008330600082B060008FA
:100010002F060008910400081713000800000000D4
:10002000000000000000000000000000BD09000802
:100030009504000800000000C1070008A90A000894
:10004000E7010008E7010008E7010008E7010008F0
:10005000E7010008E7010008E7010008E7010008E0
:10006000E7010008E7010008E7010008E7010008D0
:10007000E7010008E7010008E7010008E7010008C0
:10008000E7010008E7010008E7010008E7010008B0
:10009000E7010008E7010008E7010008E7010008A0
:1000A000E7010008E7010008E7010008E701000890
:1000B000E7010008E7010008E7010008E701000880
:1000C000E7010008E7010008E7010008E701000870
:1000D000E701000861100008E7010008E7010008D7
:1000E000E7010008E7010008E7010008E701000850
:1000F000E7010008E7010008E7010008E701000840
:10010000E7010008E7010008E7010008E70100082F
:10011000E7010008E7010008D90B0008E701000823
:10012000E7010008E7010008E7010008E70100080F
:1001300000F002F800F03AF80AA090E8000C8244BF
:100140008344AAF10107DA4501D100F02FF8AFF29C
:10015000090EBAE80F0013F0010F18BFFB1A43F0A5
:10016000010318471817000038170000103A24BF81
:1001700078C878C1FAD8520724BF30C830C144BF0C
:1001800004680C607047000000230024002500264E
:10019000103A28BF78C1FBD8520728BF30C148BFEA
:1001A0000B6070471FB51FBD10B510BD00F031F8D2
:1001B0001146FFF7F7FF01F0C3F800F04FF803B462
:1001C000FFF7F2FF03BC00F057F800000948804732
:1001D00009480047FEE7FEE7FEE7FEE7FEE7FEE729
:1001E000FEE7FEE7FEE7FEE704480549054A064B41
:1001F00070470000AD0A00083101000880000020AF
:100200008006002080020020800200207047704796
:100210007047754600F02CF8AE4605006946534617
:1002200020F00700854618B020B5FFF7DDFFBDE8D8
:1002300020404FF000064FF000074FF000084FF04D
:10024000000B21F00701AC46ACE8C009ACE8C009DE
:10025000ACE8C009ACE8C0098D46704710B504464B
:10026000AFF300802046BDE81040FFF7A8BF0000B4
:10027000004870471C00002001491820ABBEFEE773
:10028000260002007047000008B50121042000F09C
:100290001BFB4FF48070ADF8000018208DF80300B0
:1002A00003208DF802006946014800F031F908BDCD
:1002B0000008014000B58BB00121C80200F004FB2A
:1002C00044F61F60ADF824004720ADF82000002060
:1002D000ADF82600ADF822008DF8280008A91B48CB
:1002E00000F06CFE04A800F056FE6020ADF810008F
:1002F0000120ADF812000020ADF81600ADF818008E
:1003000004A9124800F0ECFC0821104800F034FD6C
:10031000684600F09BFC4FF40060ADF80000401010
:10032000ADF802008010ADF804000B20ADF8060017
:100330006946064800F07AFC0121044800F095FC6B
:100340000121024800F09DFC0BB000BD002C0140D3
:1003500010B5FFF799FFFFF7ADFF10BD10B500F026
:1003600023F800F001F810BD0EB50121102000F0B7
:100370009BFA40F2E730ADF804004720ADF80000EA
:100380006946084800F01AFE0121064800F067FCA3
:1003900001221146034800F094FC0121014800F0BD
:1003A00064FC0EBD0010004008B54FF4C06000F0C2
:1003B00079F936208DF8000000208DF80100022028
:1003C0008DF8020001208DF80300684600F032F934
:1003D00008BD000000B589B00121042000F074FAC6
:1003E00010208DF823000001ADF8200003208DF8C7
:1003F000220008A9244800F08BF84FF480712248AD
:1004000000F011F90121C80200F05EFA44F61F6005
:10041000ADF818004720ADF814000020ADF81A0020
:10042000ADF816008DF81C0005A9184800F0C6FDAF
:100430006020ADF804000120ADF806000020ADF802
:100440000800ADF80A00ADF80C004FF48070ADF86C
:10045000100001A90D4800F043FC08210B4800F0F2
:100460008BFC01A9094800F04BFD0821074800F06A
:1004700085FD0121054800F0F8FB0121034800F04B
:1004800000FC09B000BD000000080140002C014044
:1004900000BFFEE7704700B5034603E04FF47A70F3
:1004A00000F005F8181EA3F10103F7D100BD00EB21
:1004B000C001C9004FF0E022516100219161052186
:1004C000116100BF4FF0E021096901F4803100297A
:1004D000F8D004214FF0E0221161704708B50121E6
:1004E000042000F0F1F910208DF80300C020ADF8D1
:1004F000000003208DF802006946044800F008F867
:10050000C021024800F08FF808BD0000000801403B
:100510002DE9F0410246002500260020002300249A
:10052000002791F803C00CF00F0591F803C00CF000
:10053000100CBCF1000F03D091F802C04CEA050585
:1005400091F800C0BCF1000F31D0146800202BE0FE
:100550004FF0010C0CFA00F3B1F800C00CEA0306EE
:100560009E4220D183004FF00F0C0CFA03F7BC43DE
:1005700005FA03FC4CEA040491F803C0BCF1280F0F
:1005800006D14FF0010C0CFA00FCC2F814C00AE0CE
:1005900091F803C0BCF1480F05D14FF0010C0CFAE3
:1005A00000FCC2F810C0401C0828D1D31460B1F878
:1005B00000C0BCF1FF0F34DD546800202EE000F1D4
:1005C000080C4FF0010808FA0CF3B1F800C00CEA6F
:1005D00003069E4221D183004FF00F0C0CFA03F763
:1005E000BC4305FA03FC4CEA040491F803C0BCF1D7
:1005F000280F05D100F1080C08FA0CF8C2F8148095
:1006000091F803C0BCF1480F07D100F1080C4FF07E
:10061000010808FA0CF8C2F81080401C0828CED354
:100620005460BDE8F0814161704700BFFEE700BF44
:10063000FEE7704770B5002100230F22C47804B391
:10064000154C246804F4E064C4F5E064210AC1F1A7
:100650000403CA40447804FA03F184781440214327
:1006600009010E4C0678A155047804F01F050124F9
:10067000AC4005786D11AD0005F1E025C5F80041ED
:1006800009E0047804F01F050124AC40044D06780D
:10069000761145F8264070BD0CED00E000E400E066
:1006A00080E100E002490143024A11607047000006
:1006B0000000FA050CED00E000B589B00121084604
:1006C00000F0F2F80121042000F0FEF84FF0804025
:1006D00000F000FB18208DF823000F20ADF820005B
:1006E00003208DF8220008A92448FFF711FF0020FD
:1006F000ADF81A00ADF8160044F61F60ADF818000A
:100700004720ADF8140000208DF81C0005A94FF01B
:10071000804000F053FC0121880700F0A0FA01227C
:100720001146900700F0CDFA01A800F034FC6020DB
:10073000ADF804000220ADF80C000120ADF8060071
:100740000020ADF80A0001A94FF0804000F0C8FA7F
:1007500001A94FF0804000F019FB01A94FF0804043
:1007600000F074FB01A94FF0804000F0C9FB0121AB
:10077000880700F07AFA09B000BD000000080140C7
:1007800010B5044621464FF0804000F00EFC10BD2D
:1007900010B5044621464FF0804000F008FC10BD23
:1007A00010B5044621464FF0804000F002FC10BD19
:1007B00010B5044621464FF0804000F0FCFB10BD10
:1007C000704700002DE9F0470446204600F0FCFF8A
:1007D000814600F0CDFF07460A4A0B4B00F0CAFEE7
:1007E000054600F099FE84B204F5FA7084B240F632
:1007F000C410844200DD04462146044800F0D7FBC3
:10080000BDE8F087C58F31772DA11D40000800405D
:100810002DE9F0470446204600F0D6FF814600F05F
:10082000A7FF07460A4A0B4B00F0A4FE054600F05E
:1008300073FE84B204F5FA7084B240F6C4108442A8
:1008400000DD04462146044800F0B3FBBDE8F08714
:10085000C58F31772DA11D40000800402DE9F047DC
:100860000446204600F0B0FF814600F081FF0746B5
:100870000A4A0B4B00F07EFE054600F04DFE84B2A6
:1008800004F5FA7084B240F6C410844200DD0446D8
:100890002146044800F08FFBBDE8F087C58F317713
:1008A0002DA11D400008004029B1064AD26902432B
:1008B000044BDA6104E0034AD2698243014BDA61F6
:1008C000704700000010024029B1064A92690243B5
:1008D000044B9A6104E0034A92698243014B9A6196
:1008E000704700000010024030B5002100220024B3
:1008F00000232D4D6D6805F00C0121B1042905D0B0
:10090000082923D105E0294D056022E0274D056027
:100910001FE0254D6D6805F47012234D6D6805F4D8
:100920008034022505EB92421CB9214D55430560E8
:100930000BE01D4D6D6805F400351DB11C4D554390
:10094000056002E0194D5543056002E0174D056052
:1009500000BF00BF144D6D6805F0F0010909154D89
:100960006B5C0568DD4045600F4D6D6805F4E06126
:10097000090A104D6B5C4568DD4085600A4D6D6865
:1009800005F46051C90A0B4D6B5C4568DD40C560DC
:10099000054D6D6805F44041890B074D6B5CC568DA
:1009A000B5FBF3F5056130BD0010024000127A007E
:1009B00000093D000200002012000020704710B521
:1009C00000F002F810BD00000CB50020019000906E
:1009D0003348006840F480303149086000BF304837
:1009E000006800F4003000900198401C01900098CD
:1009F00018B90198B0F5A06FF1D12948006800F44A
:100A0000003010B10120009001E00020009000981B
:100A1000012843D12348006840F0100021490860B4
:100A20000846006820F0030008600846006840F0AF
:100A3000020008601A484068194948600846406842
:100A400048600846406840F4806048600846406856
:100A500020F47C1048600846406840F4E810486084
:100A60000846006840F08070086000BF0C480068CD
:100A700000F000700028F9D00948406820F0030019
:100A8000074948600846406840F00200486000BFDF
:100A90000348406800F00C000828F9D10CBD0000A4
:100AA00000100240002002407047000010B51348BB
:100AB000006840F00100114908600846406810498C
:100AC00008400E494860084600680E4908400B4936
:100AD00008600846006820F48020086008464068E6
:100AE00020F4FE0048604FF41F008860FFF767FFA6
:100AF0004FF000600449086010BD00000010024083
:100B00000000FFF8FFFFF6FE08ED00E030B589B009
:100B100005460C4601210420FFF7C6FE01210820EE
:100B2000FFF7D2FE4FF47070ADF8200018208DF85A
:100B3000230003208DF8220008A92548FFF7E8FCD0
:100B4000ADF81850ADF814400020ADF81A00ADF81B
:100B5000160005A91F4800F031FA6020ADF8040026
:100B60000020ADF80C000120ADF806000020ADF823
:100B70000A0001A9174800F0B3F80821154800F051
:100B8000FBF801A9134800F001F90821114800F011
:100B90004FF901A90F4800F059F908210D4800F05C
:100BA000A5F901A90B4800F0ABF90821094800F0AC
:100BB000E5F901A9074800F093F80821054800F07D
:100BC000DBF80121034800F050F809B030BD000007
:100BD000000C01400008004010B50121104800F051
:100BE0005FF8D8B10F480078002813DD0D48007871
:100BF00004280FDA0C480088401C0B49088008467E
:100C00000088C82806DB00F001FC002006490880A7
:100C1000044908700121024800F024F810BD0000CA
:100C20000010004001000020160000200A884B88B8
:100C30001A438B881A43CB881A430B891A434B8972
:100C40001A438B891A43A0F8442070470021018081
:100C500041808180C1800181418181817047CA4387
:100C600002827047CA430282704721B1028842F073
:100C70000102028004E002884FF6FE731A400280EF
:100C8000704731B1B0F8442042F40042A0F844204B
:100C900005E0B0F84420C2F30E02A0F844207047EB
:100CA00030B50246002000230024158A05EA01031E
:100CB000958905EA010413B10CB1012000E0002080
:100CC00030BD1AB183890B43838102E083898B4352
:100CD0008381704701894FF6F87211400181704796
:100CE00070B5002400220023058C4FF6FE763540B7
:100CF0000584028C8388048B4FF68F752C40B51EBB
:100D00002C400D882C43751E2A400D892A434D889E
:100D10002A43144DA8420BD0134DA84208D0134DBE
:100D2000A84205D0124DA84202D0124DA84213D1BC
:100D30004FF6F7752A404D892A434FF6FB752A4036
:100D40008D882A434FF6FF652B404FF6FF552B4009
:100D50008D892B43CD892B4383800483CD88858661
:100D6000028470BD002C014000340140004001406D
:100D700000440140004801400A460021018B4FF623
:100D8000F7731940114301837047000070B50024C8
:100D900000220023058C4FF6EF7635400584028C47
:100DA0008388048B48F6FF752C404FF6FF452C4096
:100DB0000D884FF6FF7606EA05252C434FF6DF75C2
:100DC0002A400D8906EA05152A434D8806EA0515CD
:100DD0002A43154DA84202D0144DA8421DD14FF60A
:100DE0007F752A404D894FF6FF7606EA05152A439E
:100DF0004FF6BF752A408D8806EA05152A434FF63F
:100E0000FF352B404FF2FF752B408D8906EA850593
:100E10002B43CD8906EA85052B4383800483CD8847
:100E20000587028470BD0000002C014000340140A1
:100E30000A460021018B4FF2FF7319404FF6FF73F2
:100E400003EA0223194301837047000070B50024B0
:100E500000220023058C4FF6FF6635400584028C86
:100E60008388848B4FF68F752C404FF6FC752C4091
:100E70000D882C434FF6FF552A400D894FF6FF761B
:100E800006EA05252A434D8806EA05252A43154D1D
:100E9000A84202D0144DA8421DD14FF2FF752A403E
:100EA0004D894FF6FF7606EA05252A434FF6FF35B2
:100EB0002A408D8806EA05252A434EF6FF752B4009
:100EC0004DF6FF752B408D8906EA05152B43CD891C
:100ED00006EA05152B4383808483CD8885870284A9
:100EE00070BD0000002C0140003401400A46002182
:100EF000818B4FF6F77319401143818370470000CF
:100F000070B5002200230024058C4EF6FF76354094
:100F10000584038C8488828B48F6FF752A404FF63F
:100F2000FF452A400D884FF6FF7606EA05252A433D
:100F30004DF6FF752B400D8906EA05352B434D888C
:100F400006EA05352B430B4DA84202D00A4DA842B4
:100F500008D14BF6FF752C408D894FF6FF7606EAD7
:100F600085152C4384808283CD88A0F8405003846B
:100F700070BD0000002C0140003401400A460021F1
:100F8000818B4FF2FF7319404FF6FF7303EA022380
:100F90001943818370470021018041808180C18095
:100FA000018141818181C1817047818670470187BC
:100FB000704781877047A0F8401070470022028870
:100FC0001D4B98420ED01D4B98420BD0B0F1804F74
:100FD00008D01B4B984205D01A4B984202D01A4BAE
:100FE000984204D14FF68F731A404B881A43174B1F
:100FF000984207D0164B984204D04FF6FF431A4050
:10100000CB881A4302808B8883850B8803850A4B23
:1010100098420BD0094B984208D00E4B984205D00D
:101020000D4B984202D00D4B984201D10B7A0386AA
:101030000123838270470000002C014000340140EE
:101040000004004000080040000C00400010004078
:1010500000140040004001400044014000480140AD
:1010600010B540F22551404800F094F800287AD09D
:101070003D4800F04BF93D49087008460078532878
:101080000CD006DC46281DD04B2813D04F281DD18C
:1010900014E057280AD0582818D103E00120344919
:1010A000087013E00220324908700FE00320304935
:1010B00008700BE004202E49087007E005202C4939
:1010C000087003E006202A49087000BF00BF2848C6
:1010D0000078012805D125480078412801D100F089
:1010E00009FA23480078022805D1204800784D28C5
:1010F00001D100F0EDF91E480078032805D11B4806
:101100000078512801D100F06FF9194800780228C1
:1011100005D1164800785A2801D100F0FEF814488D
:101120000078062806D111480078312802D1032022
:10113000104908700E480078052806D10B48007841
:10114000502802D102200B49087009480078042871
:1011500006D1064800784C2802D1012005490870C4
:1011600000200549088010BD003801400000002023
:1011700001000020180000201600002021B1828903
:1011800042F40052828104E082894DF6FF731A40D6
:101190008281704770B5024600240023002500209C
:1011A00040F66A16B14200D100BFC1F3421501F00A
:1011B0001F03012606FA03F3012D02D1968933405D
:1011C00006E0022D02D1168A334001E0968A3340B0
:1011D0000C12012606FA04F41688344013B10CB13F
:1011E000012000E0002070BDF0B503460024002679
:1011F0000025002040F66A17B94200D100BF18460A
:10120000C1F3421401F01F06012707FA06F5012C6D
:1012100001D10C3004E0022C01D1103000E0143078
:101220001AB107682F43076002E00768AF43076001
:10123000F0BD00002DE9F04786B005460E460024BB
:10124000A24600BFA1460027B08900B100BF2F46CB
:101250002C8A4CF6FF700440F08804432C82AC8941
:101260004EF6F3100440B088318908437189084371
:101270000443AC81AC8A4FF6FF400440B08904437C
:10128000AC8201A8FFF730FB1F48874202D1DDF88E
:1012900010A001E0DDF80CA0A88900F4004040B1E6
:1012A0000AEBCA0000EB0A1031684900B0FBF1F804
:1012B00007E00AEBCA0000EB0A1031688900B0FBB6
:1012C000F1F86420B8FBF0F004012009642101FB6F
:1012D0001089A88900F4004040B1322000EBC90019
:1012E000B0FBF1F000F00700044308E0322000EB0F
:1012F00009106421B0FBF1F000F00F0004432C81D1
:1013000006B0BDE8F087000000380140014688883B
:10131000C0F30800704700BFFEE710B54FF4A560AA
:10132000FFF72EFA40F22C60FFF732FA4FF4A56077
:10133000FFF736FA40F22C60FFF73AFA10BD0000D2
:10134000FFF7CCF84FF4165000F072F8FFF742F8B0
:10135000FFF7B2F900F05AF8FEF7FAFF472144F61A
:101360001F60FFF7D3FBFEF7F9FF39E01D48007857
:1013700001280DD1DC20FFF771FA3C20FFF748FA75
:101380009620FFF788F84FF48770FFF71BFA00BF2D
:101390001448007802280ED1C820FFF713FA4FF442
:1013A000AF70FFF778F84FF48270FFF757FAC82054
:1013B000FFF72EFA00BF0B480078032810D140F247
:1013C000AA50FFF7DDF940F2AA50FFF7E1F940F229
:1013D000AA50FFF7E5F940F2AA50FFF7E9F900BF7C
:1013E000C4E700001800002010B540F22C60FFF7A1
:1013F000C7F940F23750FFF7CBF940F22C60FFF706
:10140000CFF940F23750FFF7D3F910BD10B540F2D5
:10141000AA50FFF7B5F940F2AA50FFF7B9F940F228
:10142000AA50FFF7BDF940F2AA50FFF7C1F910BD6D
:1014300010B586B00446012144F20400FFF744FAD7
:101440004FF40070ADF8140003208DF8160018203A
:101450008DF8170005A91C48FFF75AF84FF4806073
:10146000ADF8140004208DF8170005A91648FFF701
:101470004FF825208DF8000000208DF80100012094
:101480008DF802008DF803006846FFF7D3F8019449
:101490000020ADF80800ADF80A00ADF80C00ADF87A
:1014A00010000C20ADF80E0001A90848FFF7C2FE9D
:1014B000012240F225510548FFF796FE012103481D
:1014C000FFF75CFE06B010BD000801400038014087
:1014D00010B54FF4AF60FFF753F940F22D50FFF70E
:1014E00057F94FF4AF60FFF75BF940F22D50FFF76B
:1014F0005FF910BD10B54FF4C860FFF741F940F235
:10150000DC50FFF745F94FF4C860FFF749F940F2A6
:10151000DC50FFF74DF910BD4FEA1153A3F580637E
:10152000D3F11E03A8BFD3F1200C08DB4FF000421B
:1015300042EAC12252EA505232FA03F0704709429D
:101540000BD4102BC4BF0020704703F5787CBCF18E
:10155000FF3F05D04FF0FF3070474FF0000070475D
:1015600070B500F0B1F800BF4992248000207047A8
:10157000F0E70000DFF848C170B51CEA111E1EBF7D
:101580001CEA13159EEA0C0F95EA0C0F00F06F8011
:1015900081EA030423EA4C134EEAD47E21EA4C117B
:1015A00041F4801143F48013AE44A1FB024CA0FB34
:1015B0000365AEF17F7E361955EB0C05A1FB034C9C
:1015C0004CF10003A0FB021C16EB0C06654153F125
:1015D0000003094218BF46F0010613F4007F0BD147
:1015E0004FEA03314FEA0530340341EA155140EA2E
:1015F00016506FF003020AE04FEAC3214FEAC520FC
:10160000F40241EA555140EA56506FF0020202EBF3
:101610002E4201EB025585EACE710AD05FEA440CF6
:1016200018BF24F0004450F1000041F1000120EA0D
:10163000D47040F2FE7C624500D270BDA84214BF57
:101640004FF080444FF04044002E08BF0024BEF10C
:10165000806FA8BFA1F1C041BDE8704080F28280D8
:101660004FF0000001F1C04101F0004170479EEAD7
:101670000C0F0CEA131518BF95EA0C0F06D04FF0AB
:10168000000081EA030E0EF0004170BD00F01CF86E
:101690008900013E00F007B800F009B84FEA430C9A
:1016A0005FEA5C5C08D081EA030100F05BB84FEAB6
:1016B000410C5FEA5C5CF6D14FF0000001497047D5
:1016C0000000FF070000F87F0EF1020E2EF0030E5F
:1016D0005EF8046B364205D4012A43EB030515F589
:1016E000001F12D8012841EB010C1CF5001F0CD87B
:1016F0000ED14FEAD17C15F5001F0CEB4C0C0CF110
:10170000020C08BF4CEBD37C04E04FF0080C01E066
:101710004FEAD37C0CEB4C0526FA05F606F00706DB
:10172000B6F1040C06D20EEB860CBDE870404CF00E
:10173000010C6047DFE80CF0090B02024FF000419A
:101740004FF00000A1F5002170BD19461046012898
:1017500051EB010418BFD4F5001484BF002001F040
:10176000004170BD0808A0F500114FEA3101704733
:1017700043004FEAD30C4FEA3C0C43401FBF4007E5
:101780000CF1605113F0FE4F70471CF0006F03D155
:1017900000200CF0004170470CF0004343EA507009
:1017A00010B540EACC0000F022F800BF0000009223
:1017B0004FEA0001FFF7D6BF4FF000414FF00000A5
:1017C000A1F5002170470000B0FA80F310FA03F28F
:1017D000C3F19D030AD0D90501EB1220530638BF8F
:1017E000704700F1010008BF20F0010070470EF1C2
:1017F000020E2EF0030E5EF8044B244204D44FEA8E
:101800004102B2F17F4F11D84FEA4003B3F17F4F4D
:101810000CD80ED14FEAD07CB2F17F4F0CEB4C0CC0
:101820000CF1020C08BF4CEBD17C04E04FF0080C2B
:1018300001E04FEAD17C0CEB4C0324FA03F404F0F2
:101840000704B4F1040C06D20EEB840CBDE8104082
:101850004CF0010C6047DFE80CF0070802024FF083
:101860000040A0F5800010BD0846420018BFD2F12C
:10187000807288BF00F0004010BD00009C18000876
:10188000000000201C0000006C010008B8180008CF
:101890001C00002064060000880100080000000011
:1018A0000000010203040102030406070809020400
:0818B000060800000000000022
:0400000508000131BD
:00000001FF
