:1000DA00534100584D00575100585A004F50004B99
:0200EA004C00C8
:1000C500758920758DFD758BFD75985053877FD289
:0500D5008EE4F5A822F5
:080003008F993099FDC299228A
:10006E008B088A09890AAB08AA09A90A1200AC6092
:10007E0013050AE50A7002050914F91200ACFF1205
:04008E00000380E209
:01009200224B
:0C00EC00E4FFE4FE0EBE21FC0FBF0AF68C
:0100F80022E5
:04009300AD07AC0603
:10009700E4FBFAC3EB9DEA9C500A1200EC0BBB0091
:0400A700010A80EFDB
:0100AB002232
:100016001200C5C291C2922080097BFF7A0079DA6C
:1000260012006E2081097BFF7A0079DD12006E20B6
:1000360082097BFF7A0079E012006E2083097BFF3C
:100046007A0079E312006E2084097BFF7A0079E654
:1000560012006E2085097BFF7A0079E912006E7F17
:08006600307E0012009380AF10
:0300130002000EDA
:03000E00C28B3270
:03000B00020105EA
:03010500C28D3276
:030000000200F902
:0C00F900787FE4F6D8FD75810A0200163D
:1000AC00BB010689828A83E0225002E722BBFE0252
:0900BC00E32289828A83E4932285
:00000001FF
