:1000C400534100584D00575100585A004F50004BAF
:0E00D4004C004161004262004363004464003E
:10011400758920758DFD758BFD75985053877FD239
:050124008EE4F5A822A5
:080003008F993099FDC299228A
:10009F008B088A09890AAB08AA09A90A1200FB6012
:1000AF0013050AE50A7002050914F91200FBFF1285
:0400BF00000380E2D8
:0100C300221A
:0C012900E4FFE4FE0EBE21FC0FBF0AF64E
:0101350022A7
:0400E200AD07AC06B4
:1000E600E4FBFAC3EB9DEA9C500A1201290BBB0004
:0400F600010A80EF8C
:0100FA0022E3
:10001600120114C291C2922080097BFF7A0079C432
:1000260012009F2081097BFF7A0079C712009F206A
:1000360082097BFF7A0079CA12009F2083097BFF21
:100046007A0079CD12009F2084097BFF7A0079D04F
:1000560012009F2085097BFF7A0079D312009F202A
:1000660086097BFF7A0079D612009F2087097BFFDD
:100076007A0079D912009F2093097BFF7A0079DCF8
:1000860012009F2094097BFF7A0079DF12009F7F80
:09009600307E001200E202001DA0
:0300130002000EDA
:03000E00C28B3270
:03000B00020142AD
:03014200C28D3239
:03000000020136C4
:0C013600787FE4F6D8FD75810A020016FF
:1000FB00BB010689828A83E0225002E722BBFE0203
:09010B00E32289828A83E4932235
:00000001FF
