:020000040800F2
:1000000048070020890100083B1700084115000837
:10001000391700088F020008FD1B000800000000CF
:100020000000000000000000000000006B17000846
:100030009D02000800000000691700087117000801
:10004000A3010008A3010008A3010008A301000800
:10005000A3010008A3010008A3010008A3010008F0
:10006000A3010008A3010008A3010008A3010008E0
:10007000A3010008A301000891020008A3010008E1
:10008000A3010008A3010008A3010008A3010008C0
:10009000A3010008A3010008A3010008A3010008B0
:1000A000A3010008A3010008A3010008A3010008A0
:1000B000A3010008A3010008A3010008A301000890
:1000C000A3010008A3010008A3010008A301000880
:1000D000A3010008F11B0008A3010008A301000808
:1000E000A3010008A3010008A301000800F002F822
:1000F00000F03AF80AA090E8000C82448344AAF188
:100100000107DA4501D100F02FF8AFF2090EBAE885
:100110000F0013F0010F18BFFB1A43F0010318473B
:10012000781B0000981B0000103A24BF78C878C1E3
:10013000FAD8520724BF30C830C144BF04680C60ED
:10014000704700000023002400250026103A28BF35
:1001500078C1FBD8520728BF30C148BF0B60704739
:100160001FB51FBD10B510BD00F058F81146FFF7C0
:10017000F7FF01F055FD00F076F803B4FFF7F2FF4A
:1001800003BC00F07DF8000009488047094800479B
:10019000FEE7FEE7FEE7FEE7FEE7FEE7FEE7FEE737
:1001A000FEE7FEE704480549054A064B7047000094
:1001B000D3170008ED000008480100204807002080
:1001C00048030020480300204FF0000200B513460A
:1001D00094469646203922BFA0E80C50A0E80C5067
:1001E000B1F12001BFF4F7AF090728BFA0E80C5018
:1001F00048BF0CC05DF804EB890028BF40F8042B11
:1002000008BF704748BF20F8022B11F0804F18BF7D
:1002100000F8012B7047704770477047754600F033
:100220002BF8AE4605006946534620F00700854688
:1002300018B020B5FFF7B6FFBDE820404FF000062C
:100240004FF000074FF000084FF0000B21F00701BE
:10025000AC46ACE8C009ACE8C009ACE8C009ACE801
:10026000C0098D46704710B50446AFF300802046A4
:10027000BDE81040FFF781BF00487047E400002050
:1002800001491820ABBEFEE7260002007047FEE7DA
:10029000014800F075B80000A0000020704772B659
:1002A000FEE710B590F821100022022905D00421A4
:1002B000816380F82020012010BD01680B6823F0C5
:1002C0000E030B6001680B6823F001030B6090F8CC
:1002D0004030C46B012101FA03F3636080F8211000
:1002E00080F82020104610BD10B590F82110002491
:1002F000022903D00421816301243DE001680A68DA
:1003000022F00E020A6001680A6822F001020A6007
:100310001A4A0168914201D1012121E0174A1432A1
:10032000914201D110211BE0144A2832914201D19F
:10033000891515E0114A3C32914201D189140FE030
:100340000E4A5032914202D14FF4803108E00B4AFC
:100350006432914202D14FF4801101E04FF080717C
:10036000064A083A5160012180F82110002180F8E6
:100370002010416B01B18847204610BD08000240A3
:100380002DE9F05FC16B0C6801680B68D0F840C0C4
:10039000042202FA0CF2494DDFF824A1494E4A4FDB
:1003A000DFF828B1DFF828E122422CD05A072AD5FD
:1003B0000A68920603D40A6822F004020A600168FF
:1003C000A94201D1042219E0514501D1402215E092
:1003D000B14202D14FF4806210E0B94202D14FF431
:1003E00080420BE0594502D14FF4802206E071456E
:1003F00002D14FF4800201E04FF080622F490839AA
:100400004A60C16A3BE04FF0020808FA0CF818EAAB
:10041000040F4FF000094FF0010235D05FEA8378F6
:1004200032D50B689B0605D40B6823F00A030B60DA
:1004300080F821200168A94201D1022219E051452A
:1004400001D1202215E0B14202D14FF4007210E038
:10045000B94202D14FF400520BE0594502D14FF49A
:10046000003206E0714502D14FF4001201E04FF076
:100470000072124908394A6080F82090816A002988
:100480001AD0BDE8F05F0847082505FA0CF52542AB
:1004900012D01B0710D50B6823F00E030B6090F8E9
:1004A0004010C36B02FA01F15960826380F8212089
:1004B00080F82090016BE2E7BDE8F09F0800024061
:1004C0001C0002403000024044000240580002403C
:1004D0006C00024030B528B308C8134914221944EF
:1004E000B1FBF2F18900C1631049816302214177B8
:1004F0001A6843F6F0718A43D0E900142143D0E929
:1005000002452C4321430469214344692143846902
:100510002143114319600021416301224277017791
:10052000084630BD012030BDF8FFFDBF000002408D
:1005300070B5044600F004F90546601C02D004487A
:100540000078044400F0FCF8401BA042FAD370BDD0
:10055000000000202DE9F84FDFF8B8910024A9F140
:10056000040B23460F2709F1040AABF1040EC9E07E
:100570000125A5402A40AA427DD1674ED1F804C08A
:10058000ACEB0608B44532D014DCBCF1030F3AD012
:1005900009DCBCF1000F2AD0BCF1010F1CD0BCF16A
:1005A000020F31D11DE0BCF1110F17D0BCF1120FB9
:1005B0002AD119E0B8F5881F19D006DCB8F5803FBC
:1005C00015D0B8F5801F1FD111E0B8F5001F0ED06F
:1005D000B8F5041F18D10AE0CB6815E0CB681B1DE5
:1005E00012E0CB6808330FE0CB680C330CE08B686B
:1005F0002BB1012B4FF0080303D0456104E0042325
:1006000002E0056100E00023FF2A01D8064601E070
:1006100000F104064FEA840501D9A5F12005D6F8BA
:10062000008007FA05FC28EA0C0803FA05F548EAF9
:100630000508C6F800804D68ED0062D5374DAE69FB
:1006400046F00106AE61AD6924F0030605F0010530
:100650000095334D06EB050CDCF80850A607360F65
:1006600007FA06F825EA0805DFF8B880404503D107
:100670004FF0000817E044E0DFF8AC80404502D1BD
:100680004FF001080FE0DFF8A480404502D14FF0A1
:10069000020808E0DFF89880404502D14FF00308D7
:1006A00001E04FF0040808FA06F848EA0508CCF81B
:1006B00008804D68D9F80060ED024D4601D516431B
:1006C00000E096432E604D68DAF80060AD025546B2
:1006D00001D5164300E096432E604D68DBF80060BC
:1006E000AD035D4601D5164300E096432E604D688C
:1006F000DEF80060ED03754601D5164300E0964331
:100700002E60641C0D682A46E5407FF431AFBDE8D9
:10071000F88F000008040140000011100010024092
:100720000000014000080140000C014000100140A1
:10073000001401400AB1016170470904FBE70000A1
:10074000014880687047000000000020024881686E
:10075000027811448160704700000020074810B5FE
:10076000016841F010010160032000F075F80F20CE
:1007700000F006F800F024F8002010BD0020024030
:1007800070B50D4D04464FF47A712878B1FBF0F046
:100790000A490968B1FBF0F000F0DCFA48B9102C06
:1007A00007D200222146501E00F036F800206C606F
:1007B00070BD012070BD0000000000200C00002072
:1007C0000C4808B5816941F001018161816901F03E
:1007D00001010091C16941F08051C161C06900F01F
:1007E000805000900448416821F0E06141F00071C0
:1007F000416008BD0010024000000140002809DBF4
:1008000000F01F02012191404009800000F1E0202A
:10081000C0F8001170470000F0B40E4B1B680C4686
:10082000C3F30223C3F10705042D00D90425191DC4
:10083000072901D2002300E0DB1E012606FA05F19C
:10084000491E214099409E40761E16403143F0BC1F
:1008500001F0D5B90CED00E0064900F00702086888
:100860004FF6FF03184040EA0220034A1043086095
:10087000704700000CED00E00000FA052DE9F0479C
:100880000F46050061D0434E306800F00700B842C3
:1008900009D2306820F0070038433060306800F03B
:1008A0000700B84251D128683B4C810712D5400758
:1008B00003D5606840F4E06060602878000703D5E5
:1008C000606840F4605060606068A96820F0F000E3
:1008D000084360602878C00728D06868012810D0D5
:1008E0002168022810D0890700292EDA616821F0DA
:1008F000030101436160FFF723FF804641F288391D
:100900000DE021688903EFE78901EDE7FFF718FFA4
:10091000A0EB0801494502D90320BDE8F0876068D3
:10092000696800F00C00B0EB810FEFD1306800F087
:100930000700B8420BD9306820F007003843306018
:10094000306800F00700B84201D00120E5E72878C0
:10095000400705D56068E96820F4E06008436060FE
:100960002878000706D56068296920F4605040EABD
:10097000C100606000F038F86168084AC1F30311F3
:10098000515CC8400649086006480068FFF7F8FE59
:100990000020C2E700200240001002407E1C000838
:1009A0000C00002004000020044805490068496844
:1009B000044AC1F30221515CC84070470C0000207A
:1009C000001002408E1C0008044805490068496870
:1009D000044AC1F3C221515CC84070470C0000209A
:1009E000001002408E1C00080E4A51680E4801F0AB
:1009F0000C03042B11D0082B0FD10C48C1F38343F7
:100A0000C903C05C0AD55168084AC1F34041921E2F
:100A1000515C054A5043B0FBF1F07047044948432C
:100A2000704700000010024000127A006E1C00089F
:100A300000093D002DE9F84F040070D02078C04D2A
:100A4000C00749D06868C0F38100012807D06868F2
:100A5000C0F38100022809D16868C00306D5286860
:100A6000800339D560680028E7D035E06068B0F5CC
:100A7000803F0BD010B1B0F5A02F11D0286820F422
:100A800080302860286820F4802002E0286840F444
:100A900080302860606890B1FFF752FE06460AE099
:100AA000286840F480202860F0E700BFFFF748FE88
:100AB000801B642873D828688003F7D50CE0FFF703
:100AC0003FFE064605E000BFFFF73AFE801B6428A4
:100AD000F0D828688003F7D420789A4E80074FF02A
:100AE00001094FF0000839D5686810F00C0F07D0E5
:100AF0006868C0F38100022809D16868C00306D481
:100B00002868800714D52069012808D110E02069E1
:100B1000B0B1C6F80090FFF713FE074605E00AE102
:100B2000FFF70EFEC01B0228C4D828688007F7D53F
:100B30002868616920F0F80040EAC10028600DE0F3
:100B4000C6F80080FFF7FCFD074604E0FFF7F8FD5C
:100B5000C01B022823D828688007F7D42078000714
:100B60002CD57948A169D9B1C0F80090FFF7E8FD0C
:100B7000074604E0FFF7E4FDC01B02280FD8686AAF
:100B80008007F7D571484FF4FA510068B0FBF1F0D7
:100B9000009000BF0098411E0091FAD20EE080E064
:100BA000C0F80080FFF7CCFD074604E0FFF7C8FD62
:100BB000C01B022875D8686A8007F7D420784007E0
:100BC00060D5E8690027C00008D4E86940F080508B
:100BD000E861E869012700F0805000905C480168F6
:100BE000C90513D40168834641F480710160FFF7A1
:100BF000A7FD824606E000BFFFF7A2FDA0EB0A00BA
:100C000064284ED8DBF80000C005F5D5E06801285F
:100C10000AD008B1052813D0286A20F00100286204
:100C2000286A20F0040002E0286A40F001002862EF
:100C3000E06841F2883B98B1FFF782FD82460BE005
:100C4000286A40F004002862EEE700BFFFF778FD55
:100C5000A0EB0A0159455AD8286A8007F6D50CE05E
:100C6000FFF76EFD824605E0FFF76AFDA0EB0A0183
:100C700059454CD8286A8007F6D41FB1E86920F09E
:100C80008050E861E06988B36968C1F38101022995
:100C900044D00228C6F8608004D0FFF751FD044616
:100CA00038E034E0FFF74CFD074604E0FFF748FD6D
:100CB000C01B02282BD828688001F7D4206AB0F521
:100CC000803F05D16868A16820F40030084368605F
:100CD000D4E908010843696821F474110843686085
:100CE000C6F86090FFF72CFD044606E025E000BF43
:100CF000FFF726FD001B022809D828688001F7D5D8
:100D00001BE000BFFFF71CFD001B022802D90320D7
:100D1000BDE8F88F28688001F4D40EE00128F7D0F0
:100D20006868226A00F48031914204D1616A00F45B
:100D30007010884201D00120EAE70020E8E70000B7
:100D40000010024000004242800442420C00002099
:100D50000070004010B5401EB0F1807F01D301202B
:100D600010BD4FF0E02460610F21601700F047FFD5
:100D70000020A06107202061002010BD10B590F870
:100D80003C20012A22D0012280F83C20CA688C68CD
:100D900022F4407222434C6822F4806222430C68A1
:100DA00022F4006222430C6922F4805222434C69EF
:100DB00022F400522243C969002322F480420A43EC
:100DC00001684A6480F83C30002010BD022010BD4C
:100DD00070B590F83C20012A26D0012480F83C40D0
:100DE000022280F83D2003685A689D6822F0700650
:100DF0000A6832435A600D4B02689A4208D0B2F139
:100E0000804F05D00A4B9A4202D00A4B9A4204D135
:100E1000496825F080031943916080F83D40002126
:100E200080F83C10084670BD022070BD002C0140C7
:100E3000000400400008004010B5040003D094F8FE
:100E40003D0010B107E0012010BD002084F83C00F7
:100E5000204600F01FF8022084F83D00211D206884
:100E600000F0B8FC012084F8460084F83E0084F8C5
:100E70003F0084F8400084F8410084F8420084F880
:100E8000430084F8440084F8450084F83D000020C5
:100E900010BD000008B500680649884208D1064820
:100EA000816941F400618161806900F40060009013
:100EB00008BD0000002C01400010024070B504463F
:100EC00090F83C000025012817D0012684F83C60EA
:100ED000022084F83D002068826822F0770222F424
:100EE0007F4282600868502838D00DDC20284FD01F
:100EF00005DC90B3102811D14AE0022070BD3028E3
:100F000046D040280AD13BE060282FD070280DD071
:100F1000B0F5805F03D0B0F5005F12D0012584F8F2
:100F20003D60002084F83C00284670BDCB68D1E9C4
:100F30000121206800F097FC2068816841F077016A
:100F400009E0CB68D1E90121206800F08CFC206821
:100F5000816841F480418160E1E719E0CA6849682D
:100F6000206800F035FD5021206806E0CA68496815
:100F7000206800F03EFD6021206800F07EFCCEE796
:100F8000CA684968206800F023FD40212068F4E722
:100F9000226801461046F0E700B585B000210091B7
:100FA00001910291039100680B49884212D10B48CC
:100FB000816941F0040181618069694600F00400A3
:100FC00004904FF470600090022001900390044858
:100FD000FFF7C0FA05B000BD002C01400010024030
:100FE0000008014070B5044690F83C0000260D460C
:100FF00001280FD0012084F83C006AB1042A1DD0DA
:10100000082A2FD00C2A3FD00126002084F83C006B
:10101000304670BD022070BD206800F037FC2068AB
:10102000816941F0080181612068816921F0040132
:101030008161206881692A69114311E0206800F00C
:101040004DFC2068816941F40061816120688169FB
:1010500021F480618161206881692A6941EA022165
:101060008161D2E7206800F065FC2068C16941F029
:101070000801C1612068C16921F00401C1612068D3
:10108000C1692A69114311E0206800F07FFC2068E3
:10109000C16941F40061C1612068C16921F48061C6
:1010A000C1612068C1692A6941EA0221C161ACE7D6
:1010B00010B5040003D094F83D0010B107E0012002
:1010C00010BD002084F83C00204600F01EF80220ED
:1010D00084F83D00211D206800F07CFB012084F88D
:1010E000460084F83E0084F83F0084F8400084F80D
:1010F000410084F8420084F8430084F8440084F8F6
:10110000450084F83D00002010BD704710B504462E
:10111000022249B104290ED0082913D094F84100C5
:10112000012816D0012010BD94F83E000128F9D105
:1011300084F83E200FE094F83F000128F2D184F8B3
:101140003F2008E094F840000128EBD184F84020CB
:1011500001E084F841200122206800F077FB0F496C
:101160002068884203D1426C42F400424264206805
:10117000884208D0B0F1804F05D00949884202D09A
:101180000849884204D1816801F00701062903D08B
:10119000016841F001010160002010BD002C0140F8
:1011A000000400400008004070477047F8B501682F
:1011B00004460868CA684B6910F00F0F4FF000052D
:1011C00059D003F0010602F49077374365D0C10788
:1011D00005D0D10503D5616C41F00101616441077F
:1011E00005D5D90703D0616C41F002016164810724
:1011F00005D5D90703D0616C41F004016164010792
:1012000007D502F02001314303D0616C41F00801A1
:101210006164616C00293AD0800604D5900602D53D
:10122000204600F027FC20684069616CC0F3801004
:10123000090700D460B3204600F0F5FB2068406940
:10124000400621D52068143050E8001F21F04001ED
:1012500040E80012002AF5D1E06BA8B16D49416366
:10126000E06BFFF741F8002811D0E06B416B01B053
:10127000BDE8F040084783060FD593060DD52046FC
:10128000BDE8F84000F0F6BB2046FFF78EFFF8BD42
:101290002046FFF78AFF6564F8BD266B2023012EE8
:1012A0007CD1C6067AD5D60678D5086848680090FD
:1012B00048694FF00206400640D5E16B0868406877
:1012C0000004000CE8D0A28D8242E5D9E08588694F
:1012D00020282DD020680C3050E8001F21F48071A8
:1012E00040E80012002AF5D12068143050E8001FB1
:1012F00021F0010140E80012002AF5D120681430E5
:1013000050E8001F21F0400140E80012002AF5D10A
:1013100084F84230256320680C3050E8001F21F02B
:10132000100140E80012002AF5D1E06BFEF7B9FF8A
:101330006663A08DE18D401A81B22AE0A08DE18D17
:10134000401A81B2E08D0028A6D00029A4D02268DE
:101350000C3252E8000F20F4907042E80007002F92
:10136000F5D12068143050E8002F22F0010240E847
:101370000027002FF5D184F84230256320680C3017
:1013800050E8002F22F0100240E80023002BF5D196
:1013900066632046FFF708FFF8BDFFE705062BD57B
:1013A000150629D594F841002128F5D1A068B0F59B
:1013B000805F01D12069B0B1206A411C216221689F
:1013C00000784860E08C401E0004000CE084E3D10B
:1013D0002068C16821F08001C1602068C16841F0C7
:1013E0004001C160D8E7206A0088C0F30800486067
:1013F000206A801C2062E5E74006CDD55006CBD59B
:10140000CA68204622F04002CA6084F8413000F0E9
:1014100096F8C1E7171A000870B5040004D094F8D4
:101420004100002510B106E0012070BD84F8405055
:10143000204600F023F8242084F841002068C16889
:1014400021F40051C160204600F076FB206801695C
:1014500021F4904101612068416921F02A01416134
:101460002068C16841F40051C1606564202084F89F
:10147000410084F842006563002070BDF0B585B07E
:1014800000250646009501950295039500682549BB
:10149000884244D12448816941F480418161816955
:1014A00001F480410491816941F008018161806902
:1014B0001E4C00F008000490402000900220019093
:1014C0000320039069462046FFF744F88027CDE9C2
:1014D0000075694620460295FFF73CF814484168BC
:1014E00041F0E06141F004014160134C114801C436
:1014F0001020A1C4104844F810596561A561E56148
:10150000FEF7E8FF08B1FEF7CAFEB46300221146F9
:1015100025206662FFF780F92520FFF76FF905B0F7
:10152000F0BD00000038014000100240000C0140F6
:101530000000014044000240A000002070477047B6
:10154000FEE70000094808B5416941F00101416129
:101550004069002200F00100009011460E20FFF7C4
:101560005BF9BDE808400E20FFF748B900100240C3
:1015700070B586B00024204800940194029403942E
:10158000816941F010018161816901F010010491CC
:10159000816941F020018161816901F0200104919C
:1015A000816941F008018161816901F008010491BC
:1015B000816941F0040181618069104E00F00400EE
:1015C0004FF400550490002229463046FFF7B2F848
:1015D0000220CDE90240009501256946019530467B
:1015E000FEF7B8FF4FF4E0408DE83100694604484B
:1015F000FEF7B0FF06B070BD0010024000100140C1
:10160000000C014010B596B000240F941094119472
:10161000129413941C2168461494FEF7D5FD2021E2
:1016200007A8FEF7D1FD3548334901604821C0E9DC
:10163000011444F61F61C0E9031444618461FFF79B
:10164000FBFB08B1FEF72BFE4FF480500F900FA963
:101650002A48FFF733FC08B1FEF721FE2748FFF7C1
:1016600027FD08B1FEF71BFE139413A92348149419
:10167000FFF7AEFB08B1FEF712FE6020CDE90004D3
:101680000220CDE9020404940594002269461B4817
:101690000694FFF7A7FC08B1FEF701FE0422694695
:1016A0001648FFF79FFC08B1FEF7F9FD08226946CE
:1016B0001248FFF797FC08B1FEF7F1FD0C226946CE
:1016C0000E48FFF78FFC08B1FEF7E9FD0794089478
:1016D00009944FF400500A94CDE90B4007A907483C
:1016E0000E94FFF74BFB08B1FEF7D9FD0348FFF757
:1016F00053FC16B010BD0000002C0140100000206B
:101700000C4810B50A4901604FF4E13141600021F5
:1017100081600C22C160C0E904128161C161FFF7E0
:101720007BFE002803D0BDE81040FEF7B8BD10BD19
:101730000038014058000020FEE7FEE710B5002108
:101740000848FFF7E3FC04210648FFF7DFFC082107
:101750000448FFF7DBFCBDE810400C210148FFF70F
:10176000D5BC00001000002070477047FFF7E6BFAF
:10177000FEF7ECBF30B58FB028216846FEF724FD98
:1017800014210AA8FEF720FD01210804CDE900106C
:101790000024029402250491CDE907504FF4E01093
:1017A00009906846FFF746F908B172B6FEE70F20C8
:1017B000CDE90A054FF48060CDE90C4002210AA86A
:1017C0000E94FFF75BF8002801D072B6FEE70FB069
:1017D00030BD7047F0B50268194B1A4C1A4D4FF0E6
:1017E0008047984205D0B84203D0A04201D0A84219
:1017F00003D122F070064A683243984205D0B842BD
:1018000003D0A04201D0A84203D122F44074CA6898
:1018100022434C6922F08002224302608A68C2623D
:101820000A688262984201D109690163012141611C
:101830000169C90703D0016921F001010161F0BD0F
:10184000002C0140000400400008004010B501F0E9
:101850001F030121046A99408C430462016A9A4083
:101860001143016210BD10B5846842EA032224F4DA
:101870007F440A432243826010BD826822F07002D6
:101880000A4342F0070181607047000030B5036AE7
:10189000026A22F0010202624268846924F0730540
:1018A0000C682C4323F002058B682B430A4DA84299
:1018B0000BD123F00805CB6822F440722B434D690D
:1018C00023F0040315438A692A434260846149680E
:1018D0004163036230BD0000002C014030B5026A54
:1018E000036A23F010030362436884690D6824F4DB
:1018F000E64444EA05248D6822F0200242EA0512FB
:101900000B4DA8420ED1CD6822F0800242EA0512AA
:101910004D6923F4406343EA85038D6922F0400258
:1019200043EA85034360846149688163026230BD94
:10193000002C014030B5036A026A22F48072026210
:101940004268C46923F4007324F073050C682C43C7
:101950008D6843EA05230C4DA8420ED1CD6823F4CF
:10196000006343EA05234D6922F4405242EA05121E
:101970008D6923F4806342EA05124260C4614968BC
:10198000C163036230BD0000002C014030B5046A21
:10199000026A22F4805202624268C3690D6823F42D
:1019A000E64343EA05238D6824F4005444EA0534F1
:1019B000064DA84204D14D6922F4804242EA8512C4
:1019C0004260C36149680164046230BD002C01407B
:1019D00010B5036A046A24F001040462846924F0E7
:1019E000F00444EA021423F00A020A43846102620A
:1019F00010BD10B5036A046A24F0100404628469FF
:101A000023F0A00324F4704444EA023243EA0111B3
:101A10008261016210BD10B5406A0021C185C18498
:101A2000FFF7C3FB10BD01680C3151E8002F22F411
:101A3000907241E80023002BF5D10168143151E880
:101A4000002F22F0010241E80023002BF5D1016BA9
:101A5000012909D101680C3151E8002F22F0100250
:101A600041E80023002BF5D1202180F8421000210D
:101A70000163704708B590F84210222901D0022076
:101A800008BD82684FF480539A4201D1016921B1A7
:101A9000816A9A421BD04AB10AE00268816A5268A0
:101AA000C2F308020A80816A891C08E0026972B1E7
:101AB0000268526802F07F020A70816A491C8162E2
:101AC000C18D491E0904090CC18503D01BE00268C1
:101AD0005268F1E70168CA6822F02002CA60016812
:101AE000CA6822F48072CA6001684A6922F0010261
:101AF0004A61202180F8421000214163026B012AD3
:101B000003D0FFF71BFD002008BD016301680C3105
:101B100051E8002F22F0100241E80023002BF5D1FC
:101B200001680A68D20602D50A6849680091818D69
:101B3000FFF73AFBE7E7000070B50446006801696B
:101B4000E26821F44051114301612169A068084312
:101B5000616908432168CA6841F20C639A430243F1
:101B6000CA6020684169A26921F440711143416152
:101B70001E492068884202D1FEF726FF01E0FEF7E9
:101B800013FF00EBC00101EB0012606864218000CC
:101B9000B2FBF0F3B3FBF1F36FF018067343B2FB43
:101BA000F0F5B2FBF0F605EB8305322303EB0515E8
:101BB000B5FBF1F5B6FBF1F605F0F00505EB061502
:101BC000B2FBF0F6B2FBF0F0B0FBF1F06FF01802F0
:101BD000504306EB800003EB0010B0FBF1F02168EE
:101BE00000F00F002844886070BD000000380140FC
:101BF0000148FFF7DBBA000058000020FEE70907A4
:101C0000090E002804DB00F1E02080F80014704782
:101C100000F00F0000F1E02080F8141D7047000074
:101C2000FEF79CFDFFF7A6FDFFF7A2FCFFF78AFC7D
:101C3000FFF7E8FCFFF764FDFFF798FD0A4C4FF44F
:101C400000564FF4FA75012231462046FEF772FD28
:101C50002846FEF76DFC002231462046FEF76AFD5D
:101C60002846FEF765FCEEE7001001400102020382
:101C70000405060708090A0B0C0D0E0F10100000D2
:101C8000000000000000010203040607080900002C
:101C90000000010203040000B81C0008000000203E
:101CA0001000000028010008C81C000810000020D7
:101CB0003807000044010008010000001000000087
:081CC0000000000000127A0090
:04000005080000ED02
:00000001FF
